{
  "contractName": "SmartCommons",
  "abi": [
    {
      "inputs": [],
      "payable": false,
      "stateMutability": "nonpayable",
      "type": "constructor"
    },
    {
      "anonymous": false,
      "inputs": [
        {
          "indexed": false,
          "internalType": "uint256",
          "name": "id",
          "type": "uint256"
        },
        {
          "indexed": false,
          "internalType": "string",
          "name": "name",
          "type": "string"
        },
        {
          "indexed": false,
          "internalType": "string",
          "name": "location",
          "type": "string"
        },
        {
          "indexed": false,
          "internalType": "string",
          "name": "owner",
          "type": "string"
        },
        {
          "indexed": false,
          "internalType": "uint256",
          "name": "price",
          "type": "uint256"
        }
      ],
      "name": "PropertyCreated",
      "type": "event"
    },
    {
      "anonymous": false,
      "inputs": [
        {
          "indexed": false,
          "internalType": "uint256",
          "name": "id",
          "type": "uint256"
        },
        {
          "indexed": false,
          "internalType": "string",
          "name": "propertyName",
          "type": "string"
        },
        {
          "indexed": false,
          "internalType": "uint256",
          "name": "uplift_value",
          "type": "uint256"
        },
        {
          "indexed": false,
          "internalType": "uint256",
          "name": "uplift_cont_rate",
          "type": "uint256"
        }
      ],
      "name": "PropertySold",
      "type": "event"
    },
    {
      "constant": true,
      "inputs": [],
      "name": "buyerCount",
      "outputs": [
        {
          "internalType": "uint256",
          "name": "",
          "type": "uint256"
        }
      ],
      "payable": false,
      "stateMutability": "view",
      "type": "function"
    },
    {
      "constant": true,
      "inputs": [
        {
          "internalType": "uint256",
          "name": "",
          "type": "uint256"
        }
      ],
      "name": "buyersOfProperty",
      "outputs": [
        {
          "internalType": "address",
          "name": "memberAddress",
          "type": "address"
        },
        {
          "internalType": "string",
          "name": "name",
          "type": "string"
        },
        {
          "internalType": "string",
          "name": "memberType",
          "type": "string"
        },
        {
          "internalType": "uint256",
          "name": "budget",
          "type": "uint256"
        }
      ],
      "payable": false,
      "stateMutability": "view",
      "type": "function"
    },
    {
      "constant": true,
      "inputs": [
        {
          "internalType": "uint256",
          "name": "",
          "type": "uint256"
        }
      ],
      "name": "funders",
      "outputs": [
        {
          "internalType": "string",
          "name": "funder",
          "type": "string"
        },
        {
          "internalType": "uint256",
          "name": "total_amount",
          "type": "uint256"
        }
      ],
      "payable": false,
      "stateMutability": "view",
      "type": "function"
    },
    {
      "constant": true,
      "inputs": [],
      "name": "name",
      "outputs": [
        {
          "internalType": "string",
          "name": "",
          "type": "string"
        }
      ],
      "payable": false,
      "stateMutability": "view",
      "type": "function"
    },
    {
      "constant": true,
      "inputs": [],
      "name": "nrofInvestments",
      "outputs": [
        {
          "internalType": "uint256",
          "name": "",
          "type": "uint256"
        }
      ],
      "payable": false,
      "stateMutability": "view",
      "type": "function"
    },
    {
      "constant": true,
      "inputs": [],
      "name": "ownerCount",
      "outputs": [
        {
          "internalType": "uint256",
          "name": "",
          "type": "uint256"
        }
      ],
      "payable": false,
      "stateMutability": "view",
      "type": "function"
    },
    {
      "constant": true,
      "inputs": [
        {
          "internalType": "uint256",
          "name": "",
          "type": "uint256"
        }
      ],
      "name": "ownersOfProperty",
      "outputs": [
        {
          "internalType": "address",
          "name": "memberAddress",
          "type": "address"
        },
        {
          "internalType": "string",
          "name": "name",
          "type": "string"
        },
        {
          "internalType": "string",
          "name": "memberType",
          "type": "string"
        },
        {
          "internalType": "uint256",
          "name": "budget",
          "type": "uint256"
        }
      ],
      "payable": false,
      "stateMutability": "view",
      "type": "function"
    },
    {
      "constant": true,
      "inputs": [
        {
          "internalType": "uint256",
          "name": "",
          "type": "uint256"
        }
      ],
      "name": "properties",
      "outputs": [
        {
          "internalType": "uint256",
          "name": "id",
          "type": "uint256"
        },
        {
          "internalType": "string",
          "name": "name",
          "type": "string"
        },
        {
          "internalType": "string",
          "name": "location",
          "type": "string"
        },
        {
          "internalType": "string",
          "name": "owner",
          "type": "string"
        },
        {
          "internalType": "uint256",
          "name": "price",
          "type": "uint256"
        },
        {
          "internalType": "bool",
          "name": "purchased",
          "type": "bool"
        }
      ],
      "payable": false,
      "stateMutability": "view",
      "type": "function"
    },
    {
      "constant": true,
      "inputs": [],
      "name": "propertyCount",
      "outputs": [
        {
          "internalType": "uint256",
          "name": "",
          "type": "uint256"
        }
      ],
      "payable": false,
      "stateMutability": "view",
      "type": "function"
    },
    {
      "constant": true,
      "inputs": [],
      "name": "propertySaleCount",
      "outputs": [
        {
          "internalType": "uint256",
          "name": "",
          "type": "uint256"
        }
      ],
      "payable": false,
      "stateMutability": "view",
      "type": "function"
    },
    {
      "constant": false,
      "inputs": [
        {
          "internalType": "address",
          "name": "_memberAddress",
          "type": "address"
        },
        {
          "internalType": "string",
          "name": "_name",
          "type": "string"
        },
        {
          "internalType": "string",
          "name": "_type",
          "type": "string"
        },
        {
          "internalType": "uint256",
          "name": "_budget",
          "type": "uint256"
        }
      ],
      "name": "addMember",
      "outputs": [],
      "payable": false,
      "stateMutability": "nonpayable",
      "type": "function"
    },
    {
      "constant": true,
      "inputs": [
        {
          "internalType": "uint256",
          "name": "_buyerId",
          "type": "uint256"
        }
      ],
      "name": "getBuyer",
      "outputs": [
        {
          "internalType": "string",
          "name": "",
          "type": "string"
        }
      ],
      "payable": false,
      "stateMutability": "view",
      "type": "function"
    },
    {
      "constant": true,
      "inputs": [
        {
          "internalType": "uint256",
          "name": "_ownerId",
          "type": "uint256"
        }
      ],
      "name": "getOwner",
      "outputs": [
        {
          "internalType": "string",
          "name": "",
          "type": "string"
        }
      ],
      "payable": false,
      "stateMutability": "view",
      "type": "function"
    },
    {
      "constant": false,
      "inputs": [
        {
          "internalType": "string",
          "name": "_name",
          "type": "string"
        },
        {
          "internalType": "string",
          "name": "_location",
          "type": "string"
        },
        {
          "internalType": "uint256",
          "name": "_ownerId",
          "type": "uint256"
        },
        {
          "internalType": "uint256",
          "name": "_price",
          "type": "uint256"
        }
      ],
      "name": "addProperty",
      "outputs": [],
      "payable": false,
      "stateMutability": "nonpayable",
      "type": "function"
    },
    {
      "constant": false,
      "inputs": [
        {
          "internalType": "uint256",
          "name": "_propertyId",
          "type": "uint256"
        },
        {
          "internalType": "uint256",
          "name": "_buyerId",
          "type": "uint256"
        },
        {
          "internalType": "uint256",
          "name": "_uplift_value",
          "type": "uint256"
        },
        {
          "internalType": "uint256",
          "name": "_uplift_cont_rate",
          "type": "uint256"
        }
      ],
      "name": "createSaleTransaction",
      "outputs": [],
      "payable": false,
      "stateMutability": "nonpayable",
      "type": "function"
    }
  ],
  "bytecode": "0x6080604052600060015560006002556000600555600060075560006009553480156200002a57600080fd5b506040518060400160405280600d81526020017f536d61727420436f6d6d6f6e730000000000000000000000000000000000000081525060009080519060200190620000789291906200007f565b506200012e565b828054600181600116156101000203166002900490600052602060002090601f016020900481019282601f10620000c257805160ff1916838001178555620000f3565b82800160010185558215620000f3579182015b82811115620000f2578251825591602001919060010190620000d5565b5b50905062000102919062000106565b5090565b6200012b91905b80821115620001275760008160009055506001016200010d565b5090565b90565b611ffa806200013e6000396000f3fe608060405234801561001057600080fd5b50600436106100f55760003560e01c806394b501b211610097578063dc0d3dff11610066578063dc0d3dff1461078f578063dd6993721461083d578063ddd7c8201461085b578063f7b10808146109d7576100f5565b806394b501b21461055f5780639e0cea05146106ac578063c361a335146106ca578063c41a360a146106e8576100f5565b80635bf608b8116100d35780635bf608b81461030157806360d7a37e146103a857806368d6312d146103c657806374f53f7514610513576100f5565b806306fdde03146100fa5780630db026221461017d57806355ecd14c1461019b575b600080fd5b610102610b6f565b6040518080602001828103825283818151815260200191508051906020019080838360005b83811015610142578082015181840152602081019050610127565b50505050905090810190601f16801561016f5780820380516001836020036101000a031916815260200191505b509250505060405180910390f35b610185610c0d565b6040518082815260200191505060405180910390f35b6102ff600480360360808110156101b157600080fd5b81019080803590602001906401000000008111156101ce57600080fd5b8201836020820111156101e057600080fd5b8035906020019184600183028401116401000000008311171561020257600080fd5b91908080601f016020809104026020016040519081016040528093929190818152602001838380828437600081840152601f19601f8201169050808301925050505050505091929192908035906020019064010000000081111561026557600080fd5b82018360208201111561027757600080fd5b8035906020019184600183028401116401000000008311171561029957600080fd5b91908080601f016020809104026020016040519081016040528093929190818152602001838380828437600081840152601f19601f8201169050808301925050505050505091929192908035906020019092919080359060200190929190505050610c13565b005b61032d6004803603602081101561031757600080fd5b8101908080359060200190929190505050610ebf565b6040518080602001828103825283818151815260200191508051906020019080838360005b8381101561036d578082015181840152602081019050610352565b50505050905090810190601f16801561039a5780820380516001836020036101000a031916815260200191505b509250505060405180910390f35b6103b0610f77565b6040518082815260200191505060405180910390f35b6103f2600480360360208110156103dc57600080fd5b8101908080359060200190929190505050610f7d565b604051808573ffffffffffffffffffffffffffffffffffffffff1673ffffffffffffffffffffffffffffffffffffffff1681526020018060200180602001848152602001838103835286818151815260200191508051906020019080838360005b8381101561046e578082015181840152602081019050610453565b50505050905090810190601f16801561049b5780820380516001836020036101000a031916815260200191505b50838103825285818151815260200191508051906020019080838360005b838110156104d45780820151818401526020810190506104b9565b50505050905090810190601f1680156105015780820380516001836020036101000a031916815260200191505b50965050505050505060405180910390f35b61055d6004803603608081101561052957600080fd5b81019080803590602001909291908035906020019092919080359060200190929190803590602001909291905050506110fd565b005b61058b6004803603602081101561057557600080fd5b81019080803590602001909291905050506115ae565b604051808573ffffffffffffffffffffffffffffffffffffffff1673ffffffffffffffffffffffffffffffffffffffff1681526020018060200180602001848152602001838103835286818151815260200191508051906020019080838360005b838110156106075780820151818401526020810190506105ec565b50505050905090810190601f1680156106345780820380516001836020036101000a031916815260200191505b50838103825285818151815260200191508051906020019080838360005b8381101561066d578082015181840152602081019050610652565b50505050905090810190601f16801561069a5780820380516001836020036101000a031916815260200191505b50965050505050505060405180910390f35b6106b461172e565b6040518082815260200191505060405180910390f35b6106d2611734565b6040518082815260200191505060405180910390f35b610714600480360360208110156106fe57600080fd5b810190808035906020019092919050505061173a565b6040518080602001828103825283818151815260200191508051906020019080838360005b83811015610754578082015181840152602081019050610739565b50505050905090810190601f1680156107815780820380516001836020036101000a031916815260200191505b509250505060405180910390f35b6107bb600480360360208110156107a557600080fd5b81019080803590602001909291905050506117f2565b6040518080602001838152602001828103825284818151815260200191508051906020019080838360005b838110156108015780820151818401526020810190506107e6565b50505050905090810190601f16801561082e5780820380516001836020036101000a031916815260200191505b50935050505060405180910390f35b6108456118ae565b6040518082815260200191505060405180910390f35b6109d56004803603608081101561087157600080fd5b81019080803573ffffffffffffffffffffffffffffffffffffffff169060200190929190803590602001906401000000008111156108ae57600080fd5b8201836020820111156108c057600080fd5b803590602001918460018302840111640100000000831117156108e257600080fd5b91908080601f016020809104026020016040519081016040528093929190818152602001838380828437600081840152601f19601f8201169050808301925050505050505091929192908035906020019064010000000081111561094557600080fd5b82018360208201111561095757600080fd5b8035906020019184600183028401116401000000008311171561097957600080fd5b91908080601f016020809104026020016040519081016040528093929190818152602001838380828437600081840152601f19601f820116905080830192505050505050509192919290803590602001909291905050506118b4565b005b610a03600480360360208110156109ed57600080fd5b8101908080359060200190929190505050611c99565b6040518087815260200180602001806020018060200186815260200185151515158152602001848103845289818151815260200191508051906020019080838360005b83811015610a61578082015181840152602081019050610a46565b50505050905090810190601f168015610a8e5780820380516001836020036101000a031916815260200191505b50848103835288818151815260200191508051906020019080838360005b83811015610ac7578082015181840152602081019050610aac565b50505050905090810190601f168015610af45780820380516001836020036101000a031916815260200191505b50848103825287818151815260200191508051906020019080838360005b83811015610b2d578082015181840152602081019050610b12565b50505050905090810190601f168015610b5a5780820380516001836020036101000a031916815260200191505b50995050505050505050505060405180910390f35b60008054600181600116156101000203166002900480601f016020809104026020016040519081016040528092919081815260200182805460018160011615610100020316600290048015610c055780601f10610bda57610100808354040283529160200191610c05565b820191906000526020600020905b815481529060010190602001808311610be857829003601f168201915b505050505081565b60015481565b6000845111610c2157600080fd5b6000835111610c2f57600080fd5b60008111610c3c57600080fd5b6060610c478361173a565b90506005600081548092919060010191905055506040518060c00160405280600554815260200186815260200185815260200182815260200183815260200160001515815250600660006005548152602001908152602001600020600082015181600001556020820151816001019080519060200190610cc8929190611eaa565b506040820151816002019080519060200190610ce5929190611eaa565b506060820151816003019080519060200190610d02929190611eaa565b506080820151816004015560a08201518160050160006101000a81548160ff0219169083151502179055509050507f06ab8df272ec1d14bcadac322c592708ba1d07004cdb689caabc425ef5bd42936005548686848660405180868152602001806020018060200180602001858152602001848103845288818151815260200191508051906020019080838360005b83811015610dac578082015181840152602081019050610d91565b50505050905090810190601f168015610dd95780820380516001836020036101000a031916815260200191505b50848103835287818151815260200191508051906020019080838360005b83811015610e12578082015181840152602081019050610df7565b50505050905090810190601f168015610e3f5780820380516001836020036101000a031916815260200191505b50848103825286818151815260200191508051906020019080838360005b83811015610e78578082015181840152602081019050610e5d565b50505050905090810190601f168015610ea55780820380516001836020036101000a031916815260200191505b509850505050505050505060405180910390a15050505050565b6060600360008381526020019081526020016000206001018054600181600116156101000203166002900480601f016020809104026020016040519081016040528092919081815260200182805460018160011615610100020316600290048015610f6b5780601f10610f4057610100808354040283529160200191610f6b565b820191906000526020600020905b815481529060010190602001808311610f4e57829003601f168201915b50505050509050919050565b60075481565b60036020528060005260406000206000915090508060000160009054906101000a900473ffffffffffffffffffffffffffffffffffffffff1690806001018054600181600116156101000203166002900480601f01602080910402602001604051908101604052809291908181526020018280546001816001161561010002031660029004801561104f5780601f106110245761010080835404028352916020019161104f565b820191906000526020600020905b81548152906001019060200180831161103257829003601f168201915b505050505090806002018054600181600116156101000203166002900480601f0160208091040260200160405190810160405280929190818152602001828054600181600116156101000203166002900480156110ed5780601f106110c2576101008083540402835291602001916110ed565b820191906000526020600020905b8154815290600101906020018083116110d057829003601f168201915b5050505050908060030154905084565b6000821161110a57600080fd5b6000811161111757600080fd5b606061112284610ebf565b905061112c611f2a565b600660008781526020019081526020016000206040518060c001604052908160008201548152602001600182018054600181600116156101000203166002900480601f0160208091040260200160405190810160405280929190818152602001828054600181600116156101000203166002900480156111ed5780601f106111c2576101008083540402835291602001916111ed565b820191906000526020600020905b8154815290600101906020018083116111d057829003601f168201915b50505050508152602001600282018054600181600116156101000203166002900480601f01602080910402602001604051908101604052809291908181526020018280546001816001161561010002031660029004801561128f5780601f106112645761010080835404028352916020019161128f565b820191906000526020600020905b81548152906001019060200180831161127257829003601f168201915b50505050508152602001600382018054600181600116156101000203166002900480601f0160208091040260200160405190810160405280929190818152602001828054600181600116156101000203166002900480156113315780601f1061130657610100808354040283529160200191611331565b820191906000526020600020905b81548152906001019060200180831161131457829003601f168201915b50505050508152602001600482015481526020016005820160009054906101000a900460ff161515151581525050905060608160600151905082826060018190525060018260a00190151590811515815250506009600081548092919060010191905055506040518060800160405280600954815260200183815260200186815260200185815250600a6000600954815260200190815260200160002060008201518160000155602082015181600101600082015181600001556020820151816001019080519060200190611407929190611eaa565b506040820151816002019080519060200190611424929190611eaa565b506060820151816003019080519060200190611441929190611eaa565b506080820151816004015560a08201518160050160006101000a81548160ff0219169083151502179055505050604082015181600701556060820151816008015590505060076000815480929190600101919050555060405180604001604052808281526020018681525060086000600754815260200190815260200160002060008201518160000190805190602001906114dd929190611eaa565b50602082015181600101559050507fff9c9d90cee13a5021c61e4721b5d7bef20c4c0455cd4e5deca95fad36274ec8600954836020015187876040518085815260200180602001848152602001838152602001828103825285818151815260200191508051906020019080838360005b8381101561156857808201518184015260208101905061154d565b50505050905090810190601f1680156115955780820380516001836020036101000a031916815260200191505b509550505050505060405180910390a150505050505050565b60046020528060005260406000206000915090508060000160009054906101000a900473ffffffffffffffffffffffffffffffffffffffff1690806001018054600181600116156101000203166002900480601f0160208091040260200160405190810160405280929190818152602001828054600181600116156101000203166002900480156116805780601f1061165557610100808354040283529160200191611680565b820191906000526020600020905b81548152906001019060200180831161166357829003601f168201915b505050505090806002018054600181600116156101000203166002900480601f01602080910402602001604051908101604052809291908181526020018280546001816001161561010002031660029004801561171e5780601f106116f35761010080835404028352916020019161171e565b820191906000526020600020905b81548152906001019060200180831161170157829003601f168201915b5050505050908060030154905084565b60025481565b60055481565b6060600460008381526020019081526020016000206001018054600181600116156101000203166002900480601f0160208091040260200160405190810160405280929190818152602001828054600181600116156101000203166002900480156117e65780601f106117bb576101008083540402835291602001916117e6565b820191906000526020600020905b8154815290600101906020018083116117c957829003601f168201915b50505050509050919050565b6008602052806000526040600020600091509050806000018054600181600116156101000203166002900480601f01602080910402602001604051908101604052809291908181526020018280546001816001161561010002031660029004801561189e5780601f106118735761010080835404028352916020019161189e565b820191906000526020600020905b81548152906001019060200180831161188157829003601f168201915b5050505050908060010154905082565b60095481565b60405160200180807f6275796572000000000000000000000000000000000000000000000000000000815250600501905060405160208183030381529060405280519060200120826040516020018082805190602001908083835b60208310611932578051825260208201915060208101905060208303925061190f565b6001836020036101000a038019825116818451168082178552505050505050905001915050604051602081830303815290604052805190602001201415611aa55761197b611f62565b60405180608001604052808673ffffffffffffffffffffffffffffffffffffffff1681526020018581526020016040518060400160405280600581526020017f627579657200000000000000000000000000000000000000000000000000000081525081526020018381525090506002600081548092919060010191905055508060036000600254815260200190815260200160002060008201518160000160006101000a81548173ffffffffffffffffffffffffffffffffffffffff021916908373ffffffffffffffffffffffffffffffffffffffff1602179055506020820151816001019080519060200190611a74929190611eaa565b506040820151816002019080519060200190611a91929190611eaa565b506060820151816003015590505050611c93565b60405160200180807f6f776e6572000000000000000000000000000000000000000000000000000000815250600501905060405160208183030381529060405280519060200120826040516020018082805190602001908083835b60208310611b235780518252602082019150602081019050602083039250611b00565b6001836020036101000a038019825116818451168082178552505050505050905001915050604051602081830303815290604052805190602001201415611c9257611b6c611f62565b60405180608001604052808673ffffffffffffffffffffffffffffffffffffffff1681526020018581526020016040518060400160405280600581526020017f6f776e657200000000000000000000000000000000000000000000000000000081525081526020018381525090506001600081548092919060010191905055508060046000600154815260200190815260200160002060008201518160000160006101000a81548173ffffffffffffffffffffffffffffffffffffffff021916908373ffffffffffffffffffffffffffffffffffffffff1602179055506020820151816001019080519060200190611c65929190611eaa565b506040820151816002019080519060200190611c82929190611eaa565b5060608201518160030155905050505b5b50505050565b6006602052806000526040600020600091509050806000015490806001018054600181600116156101000203166002900480601f016020809104026020016040519081016040528092919081815260200182805460018160011615610100020316600290048015611d4b5780601f10611d2057610100808354040283529160200191611d4b565b820191906000526020600020905b815481529060010190602001808311611d2e57829003601f168201915b505050505090806002018054600181600116156101000203166002900480601f016020809104026020016040519081016040528092919081815260200182805460018160011615610100020316600290048015611de95780601f10611dbe57610100808354040283529160200191611de9565b820191906000526020600020905b815481529060010190602001808311611dcc57829003601f168201915b505050505090806003018054600181600116156101000203166002900480601f016020809104026020016040519081016040528092919081815260200182805460018160011615610100020316600290048015611e875780601f10611e5c57610100808354040283529160200191611e87565b820191906000526020600020905b815481529060010190602001808311611e6a57829003601f168201915b5050505050908060040154908060050160009054906101000a900460ff16905086565b828054600181600116156101000203166002900490600052602060002090601f016020900481019282601f10611eeb57805160ff1916838001178555611f19565b82800160010185558215611f19579182015b82811115611f18578251825591602001919060010190611efd565b5b509050611f269190611fa0565b5090565b6040518060c0016040528060008152602001606081526020016060815260200160608152602001600081526020016000151581525090565b6040518060800160405280600073ffffffffffffffffffffffffffffffffffffffff1681526020016060815260200160608152602001600081525090565b611fc291905b80821115611fbe576000816000905550600101611fa6565b5090565b9056fea265627a7a7231582072c578d960e782d31de670b16ac66739a189cbc22acb70c0261899065e2245b064736f6c634300050c0032",
  "source": "pragma solidity ^0.5.0;\n\ncontract SmartCommons {\n    string public name;\n     \n    struct Member {\n        address memberAddress;\n        string name;\n        string memberType;\n        uint budget;\n    }\n\n    uint public ownerCount = 0;\n    uint public buyerCount = 0;\n    mapping(uint => Member) public buyersOfProperty;\n    mapping(uint => Member) public ownersOfProperty;\n\n    function addMember(address _memberAddress, string memory _name, string memory _type, uint _budget) public {\n\n        if (keccak256(abi.encodePacked(_type)) == keccak256(abi.encodePacked('buyer'))) {\n             Member memory buyer = Member(_memberAddress, _name, 'buyer', _budget);\n             buyerCount++;\n             buyersOfProperty[buyerCount] = buyer;\n             \n\n        } else if (keccak256(abi.encodePacked(_type)) == keccak256(abi.encodePacked('owner'))){\n            Member memory owner = Member(_memberAddress, _name, 'owner', _budget);\n            ownerCount++;\n            ownersOfProperty[ownerCount] = owner;\n            \n        }\n    }\n\n    function getBuyer(uint _buyerId) view public returns (string memory) {\n        return buyersOfProperty[_buyerId].name;\n    }\n\n    function getOwner(uint _ownerId) view public returns (string memory) {\n        return ownersOfProperty[_ownerId].name;\n    }\n\n    struct Property {\n        uint id;\n        string name;\n        string location;\n        string owner;\n        uint price;\n        bool purchased;\n    }\n\n    uint public propertyCount = 0;\n    mapping(uint => Property) public properties;\n    \n    event PropertyCreated (\n        uint id,\n        string name,\n        string location,\n        string owner,\n        uint price\n    );\n\n    function addProperty(string memory _name, string memory _location, uint _ownerId, uint _price) public {\n        require(bytes(_name).length > 0);\n        require(bytes(_location).length > 0);\n        require(_price > 0);\n        \n        string memory owner = getOwner(_ownerId);\n        propertyCount++;\n        properties[propertyCount] = Property(propertyCount, _name, _location, owner, _price, false);\n        emit PropertyCreated(propertyCount, _name, _location, owner, _price);\n    }\n\n    struct InvestmentFund {\n        string funder;\n        uint total_amount;\n    }\n    uint public nrofInvestments = 0;\n    mapping(uint => InvestmentFund) public funders;\n\n\n    struct PropertySale {\n        uint id;\n        Property property;\n        uint uplift_value;\n        uint uplift_cont_rate;\n    }\n\n    uint public propertySaleCount = 0;\n    mapping(uint => PropertySale) property_sales;\n\n    event PropertySold(\n        uint id,\n        string propertyName,\n        uint uplift_value,\n        uint uplift_cont_rate\n    );\n\n    function createSaleTransaction(uint _propertyId, uint _buyerId, uint _uplift_value, uint _uplift_cont_rate) public {\n        require(_uplift_value > 0);\n        require(_uplift_cont_rate > 0);\n        string memory newOwner = getBuyer(_buyerId);\n        Property memory _property = properties[_propertyId];\n        string memory currentOwner = _property.owner;\n        _property.owner = newOwner;\n        _property.purchased = true;\n        propertySaleCount ++;\n        property_sales[propertySaleCount] = PropertySale(propertySaleCount, _property, _uplift_value, _uplift_cont_rate);\n        nrofInvestments ++;\n        funders[nrofInvestments] = InvestmentFund(currentOwner, _uplift_value);\n        emit PropertySold(propertySaleCount, _property.name, _uplift_value, _uplift_cont_rate);\n    }\n\n    constructor() public {\n        name = \"Smart Commons\";\n    }\n}",
  "sourcePath": "/Users/ozzibroccoli/dev/lucidminds/smart-commons/src/contracts/SmartCommons.sol",
  "compiler": {
    "name": "solc",
    "version": "0.5.12+commit.7709ece9.Emscripten.clang"
  },
  "schemaVersion": "3.0.19",
  "updatedAt": "2020-01-09T14:29:56.711Z",
  "devdoc": {
    "methods": {}
  },
  "userdoc": {
    "methods": {}
  }
}