{
  "contractName": "SmartCommons",
  "abi": [
    {
      "inputs": [],
      "payable": false,
      "stateMutability": "nonpayable",
      "type": "constructor"
    },
    {
      "anonymous": false,
      "inputs": [
        {
          "indexed": false,
          "internalType": "uint256",
          "name": "id",
          "type": "uint256"
        },
        {
          "indexed": false,
          "internalType": "string",
          "name": "name",
          "type": "string"
        },
        {
          "indexed": false,
          "internalType": "string",
          "name": "location",
          "type": "string"
        },
        {
          "indexed": false,
          "internalType": "string",
          "name": "owner",
          "type": "string"
        },
        {
          "indexed": false,
          "internalType": "uint256",
          "name": "registered_valuation",
          "type": "uint256"
        },
        {
          "indexed": false,
          "internalType": "uint256",
          "name": "sell_value",
          "type": "uint256"
        },
        {
          "indexed": false,
          "internalType": "uint256",
          "name": "uplift_percentage",
          "type": "uint256"
        },
        {
          "indexed": false,
          "internalType": "string",
          "name": "registered_date",
          "type": "string"
        }
      ],
      "name": "PropertyCreated",
      "type": "event"
    },
    {
      "anonymous": false,
      "inputs": [
        {
          "indexed": false,
          "internalType": "uint256",
          "name": "id",
          "type": "uint256"
        },
        {
          "indexed": false,
          "internalType": "string",
          "name": "propertyName",
          "type": "string"
        },
        {
          "indexed": false,
          "internalType": "uint256",
          "name": "uplift_value",
          "type": "uint256"
        },
        {
          "indexed": false,
          "internalType": "uint256",
          "name": "uplift_cont_rate",
          "type": "uint256"
        }
      ],
      "name": "PropertySold",
      "type": "event"
    },
    {
      "constant": true,
      "inputs": [],
      "name": "buyerCount",
      "outputs": [
        {
          "internalType": "uint256",
          "name": "",
          "type": "uint256"
        }
      ],
      "payable": false,
      "stateMutability": "view",
      "type": "function"
    },
    {
      "constant": true,
      "inputs": [
        {
          "internalType": "uint256",
          "name": "",
          "type": "uint256"
        }
      ],
      "name": "buyersOfProperty",
      "outputs": [
        {
          "internalType": "uint256",
          "name": "id",
          "type": "uint256"
        },
        {
          "internalType": "string",
          "name": "name",
          "type": "string"
        },
        {
          "internalType": "string",
          "name": "memberType",
          "type": "string"
        },
        {
          "internalType": "address",
          "name": "memberAddress",
          "type": "address"
        },
        {
          "internalType": "uint256",
          "name": "budget",
          "type": "uint256"
        }
      ],
      "payable": false,
      "stateMutability": "view",
      "type": "function"
    },
    {
      "constant": true,
      "inputs": [
        {
          "internalType": "uint256",
          "name": "",
          "type": "uint256"
        }
      ],
      "name": "funders",
      "outputs": [
        {
          "internalType": "string",
          "name": "funder",
          "type": "string"
        },
        {
          "internalType": "uint256",
          "name": "total_amount",
          "type": "uint256"
        }
      ],
      "payable": false,
      "stateMutability": "view",
      "type": "function"
    },
    {
      "constant": true,
      "inputs": [
        {
          "internalType": "uint256",
          "name": "",
          "type": "uint256"
        }
      ],
      "name": "membersList",
      "outputs": [
        {
          "internalType": "uint256",
          "name": "",
          "type": "uint256"
        }
      ],
      "payable": false,
      "stateMutability": "view",
      "type": "function"
    },
    {
      "constant": true,
      "inputs": [],
      "name": "name",
      "outputs": [
        {
          "internalType": "string",
          "name": "",
          "type": "string"
        }
      ],
      "payable": false,
      "stateMutability": "view",
      "type": "function"
    },
    {
      "constant": true,
      "inputs": [],
      "name": "nrofInvestments",
      "outputs": [
        {
          "internalType": "uint256",
          "name": "",
          "type": "uint256"
        }
      ],
      "payable": false,
      "stateMutability": "view",
      "type": "function"
    },
    {
      "constant": true,
      "inputs": [],
      "name": "ownerCount",
      "outputs": [
        {
          "internalType": "uint256",
          "name": "",
          "type": "uint256"
        }
      ],
      "payable": false,
      "stateMutability": "view",
      "type": "function"
    },
    {
      "constant": true,
      "inputs": [
        {
          "internalType": "uint256",
          "name": "",
          "type": "uint256"
        }
      ],
      "name": "owners",
      "outputs": [
        {
          "internalType": "uint256",
          "name": "id",
          "type": "uint256"
        },
        {
          "internalType": "string",
          "name": "name",
          "type": "string"
        },
        {
          "internalType": "string",
          "name": "memberType",
          "type": "string"
        },
        {
          "internalType": "address",
          "name": "memberAddress",
          "type": "address"
        },
        {
          "internalType": "uint256",
          "name": "budget",
          "type": "uint256"
        }
      ],
      "payable": false,
      "stateMutability": "view",
      "type": "function"
    },
    {
      "constant": true,
      "inputs": [
        {
          "internalType": "uint256",
          "name": "",
          "type": "uint256"
        }
      ],
      "name": "properties",
      "outputs": [
        {
          "internalType": "uint256",
          "name": "id",
          "type": "uint256"
        },
        {
          "internalType": "string",
          "name": "name",
          "type": "string"
        },
        {
          "internalType": "string",
          "name": "location",
          "type": "string"
        },
        {
          "internalType": "string",
          "name": "owner",
          "type": "string"
        },
        {
          "internalType": "uint256",
          "name": "registered_valuation",
          "type": "uint256"
        },
        {
          "internalType": "uint256",
          "name": "sell_value",
          "type": "uint256"
        },
        {
          "internalType": "uint256",
          "name": "uplift_percentage",
          "type": "uint256"
        },
        {
          "internalType": "bool",
          "name": "purchased",
          "type": "bool"
        },
        {
          "internalType": "string",
          "name": "registered_date",
          "type": "string"
        }
      ],
      "payable": false,
      "stateMutability": "view",
      "type": "function"
    },
    {
      "constant": true,
      "inputs": [],
      "name": "propertyCount",
      "outputs": [
        {
          "internalType": "uint256",
          "name": "",
          "type": "uint256"
        }
      ],
      "payable": false,
      "stateMutability": "view",
      "type": "function"
    },
    {
      "constant": true,
      "inputs": [],
      "name": "propertySaleCount",
      "outputs": [
        {
          "internalType": "uint256",
          "name": "",
          "type": "uint256"
        }
      ],
      "payable": false,
      "stateMutability": "view",
      "type": "function"
    },
    {
      "constant": false,
      "inputs": [
        {
          "internalType": "string",
          "name": "_name",
          "type": "string"
        },
        {
          "internalType": "string",
          "name": "_type",
          "type": "string"
        },
        {
          "internalType": "uint256",
          "name": "_budget",
          "type": "uint256"
        }
      ],
      "name": "addMember",
      "outputs": [],
      "payable": false,
      "stateMutability": "nonpayable",
      "type": "function"
    },
    {
      "constant": true,
      "inputs": [
        {
          "internalType": "uint256",
          "name": "_buyerId",
          "type": "uint256"
        }
      ],
      "name": "getBuyer",
      "outputs": [
        {
          "internalType": "string",
          "name": "",
          "type": "string"
        }
      ],
      "payable": false,
      "stateMutability": "view",
      "type": "function"
    },
    {
      "constant": true,
      "inputs": [
        {
          "internalType": "uint256",
          "name": "_ownerId",
          "type": "uint256"
        }
      ],
      "name": "getOwner",
      "outputs": [
        {
          "internalType": "string",
          "name": "",
          "type": "string"
        }
      ],
      "payable": false,
      "stateMutability": "view",
      "type": "function"
    },
    {
      "constant": false,
      "inputs": [
        {
          "internalType": "string",
          "name": "_name",
          "type": "string"
        },
        {
          "internalType": "string",
          "name": "_location",
          "type": "string"
        },
        {
          "internalType": "uint256",
          "name": "_ownerId",
          "type": "uint256"
        },
        {
          "internalType": "uint256",
          "name": "_registered_valuation",
          "type": "uint256"
        },
        {
          "internalType": "uint256",
          "name": "_sell_value",
          "type": "uint256"
        },
        {
          "internalType": "uint256",
          "name": "_uplift_percentage",
          "type": "uint256"
        },
        {
          "internalType": "string",
          "name": "_registered_date",
          "type": "string"
        }
      ],
      "name": "addProperty",
      "outputs": [],
      "payable": false,
      "stateMutability": "nonpayable",
      "type": "function"
    },
    {
      "constant": false,
      "inputs": [
        {
          "internalType": "uint256",
          "name": "_propertyId",
          "type": "uint256"
        },
        {
          "internalType": "uint256",
          "name": "_buyerId",
          "type": "uint256"
        },
        {
          "internalType": "uint256",
          "name": "_uplift_value",
          "type": "uint256"
        },
        {
          "internalType": "uint256",
          "name": "_uplift_cont_rate",
          "type": "uint256"
        }
      ],
      "name": "createSaleTransaction",
      "outputs": [],
      "payable": false,
      "stateMutability": "nonpayable",
      "type": "function"
    }
  ],
  "bytecode": "0x608060405260006002556000600355600060065560006008556000600a553480156200002a57600080fd5b506040518060400160405280600d81526020017f536d61727420436f6d6d6f6e730000000000000000000000000000000000000081525060009080519060200190620000789291906200007f565b506200012e565b828054600181600116156101000203166002900490600052602060002090601f016020900481019282601f10620000c257805160ff1916838001178555620000f3565b82800160010185558215620000f3579182015b82811115620000f2578251825591602001919060010190620000d5565b5b50905062000102919062000106565b5090565b6200012b91905b80821115620001275760008160009055506001016200010d565b5090565b90565b6123ee806200013e6000396000f3fe608060405234801561001057600080fd5b50600436106101005760003560e01c806374f53f7511610097578063c41a360a11610066578063c41a360a1461094a578063dc0d3dff146109f1578063dd69937214610a9f578063f7b1080814610abd57610100565b806374f53f75146106b1578063993b6096146106fd5780639e0cea051461090e578063c361a3351461092c57610100565b80634c66c749116100d35780634c66c7491461033c5780635bf608b81461049857806360d7a37e1461053f57806368d6312d1461055d57610100565b8063025e7c271461010557806306fdde03146102595780630db02622146102dc57806313b8ad31146102fa575b600080fd5b6101316004803603602081101561011b57600080fd5b8101908080359060200190929190505050610ccf565b6040518086815260200180602001806020018573ffffffffffffffffffffffffffffffffffffffff1673ffffffffffffffffffffffffffffffffffffffff168152602001848152602001838103835287818151815260200191508051906020019080838360005b838110156101b3578082015181840152602081019050610198565b50505050905090810190601f1680156101e05780820380516001836020036101000a031916815260200191505b50838103825286818151815260200191508051906020019080838360005b838110156102195780820151818401526020810190506101fe565b50505050905090810190601f1680156102465780820380516001836020036101000a031916815260200191505b5097505050505050505060405180910390f35b610261610e55565b6040518080602001828103825283818151815260200191508051906020019080838360005b838110156102a1578082015181840152602081019050610286565b50505050905090810190601f1680156102ce5780820380516001836020036101000a031916815260200191505b509250505060405180910390f35b6102e4610ef3565b6040518082815260200191505060405180910390f35b6103266004803603602081101561031057600080fd5b8101908080359060200190929190505050610ef9565b6040518082815260200191505060405180910390f35b6104966004803603606081101561035257600080fd5b810190808035906020019064010000000081111561036f57600080fd5b82018360208201111561038157600080fd5b803590602001918460018302840111640100000000831117156103a357600080fd5b91908080601f016020809104026020016040519081016040528093929190818152602001838380828437600081840152601f19601f8201169050808301925050505050505091929192908035906020019064010000000081111561040657600080fd5b82018360208201111561041857600080fd5b8035906020019184600183028401116401000000008311171561043a57600080fd5b91908080601f016020809104026020016040519081016040528093929190818152602001838380828437600081840152601f19601f82011690508083019250505050505050919291929080359060200190929190505050610f1a565b005b6104c4600480360360208110156104ae57600080fd5b81019080803590602001909291905050506112e4565b6040518080602001828103825283818151815260200191508051906020019080838360005b838110156105045780820151818401526020810190506104e9565b50505050905090810190601f1680156105315780820380516001836020036101000a031916815260200191505b509250505060405180910390f35b61054761139c565b6040518082815260200191505060405180910390f35b6105896004803603602081101561057357600080fd5b81019080803590602001909291905050506113a2565b6040518086815260200180602001806020018573ffffffffffffffffffffffffffffffffffffffff1673ffffffffffffffffffffffffffffffffffffffff168152602001848152602001838103835287818151815260200191508051906020019080838360005b8381101561060b5780820151818401526020810190506105f0565b50505050905090810190601f1680156106385780820380516001836020036101000a031916815260200191505b50838103825286818151815260200191508051906020019080838360005b83811015610671578082015181840152602081019050610656565b50505050905090810190601f16801561069e5780820380516001836020036101000a031916815260200191505b5097505050505050505060405180910390f35b6106fb600480360360808110156106c757600080fd5b8101908080359060200190929190803590602001909291908035906020019092919080359060200190929190505050611528565b005b61090c600480360360e081101561071357600080fd5b810190808035906020019064010000000081111561073057600080fd5b82018360208201111561074257600080fd5b8035906020019184600183028401116401000000008311171561076457600080fd5b91908080601f016020809104026020016040519081016040528093929190818152602001838380828437600081840152601f19601f820116905080830192505050505050509192919290803590602001906401000000008111156107c757600080fd5b8201836020820111156107d957600080fd5b803590602001918460018302840111640100000000831117156107fb57600080fd5b91908080601f016020809104026020016040519081016040528093929190818152602001838380828437600081840152601f19601f820116905080830192505050505050509192919290803590602001909291908035906020019092919080359060200190929190803590602001909291908035906020019064010000000081111561088657600080fd5b82018360208201111561089857600080fd5b803590602001918460018302840111640100000000831117156108ba57600080fd5b91908080601f016020809104026020016040519081016040528093929190818152602001838380828437600081840152601f19601f820116905080830192505050505050509192919290505050611ac2565b005b610916611e40565b6040518082815260200191505060405180910390f35b610934611e46565b6040518082815260200191505060405180910390f35b6109766004803603602081101561096057600080fd5b8101908080359060200190929190505050611e4c565b6040518080602001828103825283818151815260200191508051906020019080838360005b838110156109b657808201518184015260208101905061099b565b50505050905090810190601f1680156109e35780820380516001836020036101000a031916815260200191505b509250505060405180910390f35b610a1d60048036036020811015610a0757600080fd5b8101908080359060200190929190505050611f04565b6040518080602001838152602001828103825284818151815260200191508051906020019080838360005b83811015610a63578082015181840152602081019050610a48565b50505050905090810190601f168015610a905780820380516001836020036101000a031916815260200191505b50935050505060405180910390f35b610aa7611fc0565b6040518082815260200191505060405180910390f35b610ae960048036036020811015610ad357600080fd5b8101908080359060200190929190505050611fc6565b604051808a8152602001806020018060200180602001898152602001888152602001878152602001861515151581526020018060200185810385528d818151815260200191508051906020019080838360005b83811015610b57578082015181840152602081019050610b3c565b50505050905090810190601f168015610b845780820380516001836020036101000a031916815260200191505b5085810384528c818151815260200191508051906020019080838360005b83811015610bbd578082015181840152602081019050610ba2565b50505050905090810190601f168015610bea5780820380516001836020036101000a031916815260200191505b5085810383528b818151815260200191508051906020019080838360005b83811015610c23578082015181840152602081019050610c08565b50505050905090810190601f168015610c505780820380516001836020036101000a031916815260200191505b50858103825286818151815260200191508051906020019080838360005b83811015610c89578082015181840152602081019050610c6e565b50505050905090810190601f168015610cb65780820380516001836020036101000a031916815260200191505b509d505050505050505050505050505060405180910390f35b6005602052806000526040600020600091509050806000015490806001018054600181600116156101000203166002900480601f016020809104026020016040519081016040528092919081815260200182805460018160011615610100020316600290048015610d815780601f10610d5657610100808354040283529160200191610d81565b820191906000526020600020905b815481529060010190602001808311610d6457829003601f168201915b505050505090806002018054600181600116156101000203166002900480601f016020809104026020016040519081016040528092919081815260200182805460018160011615610100020316600290048015610e1f5780601f10610df457610100808354040283529160200191610e1f565b820191906000526020600020905b815481529060010190602001808311610e0257829003601f168201915b5050505050908060030160009054906101000a900473ffffffffffffffffffffffffffffffffffffffff16908060040154905085565b60008054600181600116156101000203166002900480601f016020809104026020016040519081016040528092919081815260200182805460018160011615610100020316600290048015610eeb5780601f10610ec057610100808354040283529160200191610eeb565b820191906000526020600020905b815481529060010190602001808311610ece57829003601f168201915b505050505081565b60025481565b60018181548110610f0657fe5b906000526020600020016000915090505481565b6000835111610f2857600080fd5b6000825111610f3657600080fd5b60008111610f4357600080fd5b600060405160200180807f6275796572000000000000000000000000000000000000000000000000000000815250600501905060405160208183030381529060405280519060200120836040516020018082805190602001908083835b60208310610fc35780518252602082019150602081019050602083039250610fa0565b6001836020036101000a0380198251168184511680821785525050505050509050019150506040516020818303038152906040528051906020012014156111135760036000815480929190600101919050555061101e612281565b6040518060a0016040528060035481526020018681526020018581526020018373ffffffffffffffffffffffffffffffffffffffff1681526020018481525090508060046000600354815260200190815260200160002060008201518160000155602082015181600101908051906020019061109b9291906122c6565b5060408201518160020190805190602001906110b89291906122c6565b5060608201518160030160006101000a81548173ffffffffffffffffffffffffffffffffffffffff021916908373ffffffffffffffffffffffffffffffffffffffff16021790555060808201518160040155905050506112de565b60405160200180807f6f776e6572000000000000000000000000000000000000000000000000000000815250600501905060405160208183030381529060405280519060200120836040516020018082805190602001908083835b60208310611191578051825260208201915060208101905060208303925061116e565b6001836020036101000a0380198251168184511680821785525050505050509050019150506040516020818303038152906040528051906020012014156112dd576002600081548092919060010191905055506111ec612281565b6040518060a0016040528060025481526020018681526020018581526020018373ffffffffffffffffffffffffffffffffffffffff168152602001848152509050806005600060025481526020019081526020016000206000820151816000015560208201518160010190805190602001906112699291906122c6565b5060408201518160020190805190602001906112869291906122c6565b5060608201518160030160006101000a81548173ffffffffffffffffffffffffffffffffffffffff021916908373ffffffffffffffffffffffffffffffffffffffff16021790555060808201518160040155905050505b5b50505050565b6060600460008381526020019081526020016000206001018054600181600116156101000203166002900480601f0160208091040260200160405190810160405280929190818152602001828054600181600116156101000203166002900480156113905780601f1061136557610100808354040283529160200191611390565b820191906000526020600020905b81548152906001019060200180831161137357829003601f168201915b50505050509050919050565b60085481565b6004602052806000526040600020600091509050806000015490806001018054600181600116156101000203166002900480601f0160208091040260200160405190810160405280929190818152602001828054600181600116156101000203166002900480156114545780601f1061142957610100808354040283529160200191611454565b820191906000526020600020905b81548152906001019060200180831161143757829003601f168201915b505050505090806002018054600181600116156101000203166002900480601f0160208091040260200160405190810160405280929190818152602001828054600181600116156101000203166002900480156114f25780601f106114c7576101008083540402835291602001916114f2565b820191906000526020600020905b8154815290600101906020018083116114d557829003601f168201915b5050505050908060030160009054906101000a900473ffffffffffffffffffffffffffffffffffffffff16908060040154905085565b6000821161153557600080fd5b6000811161154257600080fd5b606061154d846112e4565b9050611557612346565b600760008781526020019081526020016000206040518061012001604052908160008201548152602001600182018054600181600116156101000203166002900480601f0160208091040260200160405190810160405280929190818152602001828054600181600116156101000203166002900480156116195780601f106115ee57610100808354040283529160200191611619565b820191906000526020600020905b8154815290600101906020018083116115fc57829003601f168201915b50505050508152602001600282018054600181600116156101000203166002900480601f0160208091040260200160405190810160405280929190818152602001828054600181600116156101000203166002900480156116bb5780601f10611690576101008083540402835291602001916116bb565b820191906000526020600020905b81548152906001019060200180831161169e57829003601f168201915b50505050508152602001600382018054600181600116156101000203166002900480601f01602080910402602001604051908101604052809291908181526020018280546001816001161561010002031660029004801561175d5780601f106117325761010080835404028352916020019161175d565b820191906000526020600020905b81548152906001019060200180831161174057829003601f168201915b505050505081526020016004820154815260200160058201548152602001600682015481526020016007820160009054906101000a900460ff16151515158152602001600882018054600181600116156101000203166002900480601f0160208091040260200160405190810160405280929190818152602001828054600181600116156101000203166002900480156118385780601f1061180d57610100808354040283529160200191611838565b820191906000526020600020905b81548152906001019060200180831161181b57829003601f168201915b505050505081525050905060608160600151905082826060018190525060018260e0019015159081151581525050600a600081548092919060010191905055506040518060800160405280600a54815260200183815260200186815260200185815250600b6000600a548152602001908152602001600020600082015181600001556020820151816001016000820151816000015560208201518160010190805190602001906118e99291906122c6565b5060408201518160020190805190602001906119069291906122c6565b5060608201518160030190805190602001906119239291906122c6565b506080820151816004015560a0820151816005015560c0820151816006015560e08201518160070160006101000a81548160ff02191690831515021790555061010082015181600801908051906020019061197f9291906122c6565b505050604082015181600a0155606082015181600b015590505060086000815480929190600101919050555060405180604001604052808281526020018681525060096000600854815260200190815260200160002060008201518160000190805190602001906119f19291906122c6565b50602082015181600101559050507fff9c9d90cee13a5021c61e4721b5d7bef20c4c0455cd4e5deca95fad36274ec8600a54836020015187876040518085815260200180602001848152602001838152602001828103825285818151815260200191508051906020019080838360005b83811015611a7c578082015181840152602081019050611a61565b50505050905090810190601f168015611aa95780820380516001836020036101000a031916815260200191505b509550505050505060405180910390a150505050505050565b6000875111611ad057600080fd5b6000865111611ade57600080fd5b60008411611aeb57600080fd5b60008211611af857600080fd5b6060611b0386611e4c565b9050600660008154809291906001019190505550604051806101200160405280600654815260200189815260200188815260200182815260200186815260200185815260200184815260200160001515815260200183815250600760006006548152602001908152602001600020600082015181600001556020820151816001019080519060200190611b979291906122c6565b506040820151816002019080519060200190611bb49291906122c6565b506060820151816003019080519060200190611bd19291906122c6565b506080820151816004015560a0820151816005015560c0820151816006015560e08201518160070160006101000a81548160ff021916908315150217905550610100820151816008019080519060200190611c2d9291906122c6565b509050507fc976af3d8d8069f798fb23a2667e0d6a2f0c1a6716c7fc0a76817265b28beb9d60065489898489898989604051808981526020018060200180602001806020018881526020018781526020018681526020018060200185810385528c818151815260200191508051906020019080838360005b83811015611cc0578082015181840152602081019050611ca5565b50505050905090810190601f168015611ced5780820380516001836020036101000a031916815260200191505b5085810384528b818151815260200191508051906020019080838360005b83811015611d26578082015181840152602081019050611d0b565b50505050905090810190601f168015611d535780820380516001836020036101000a031916815260200191505b5085810383528a818151815260200191508051906020019080838360005b83811015611d8c578082015181840152602081019050611d71565b50505050905090810190601f168015611db95780820380516001836020036101000a031916815260200191505b50858103825286818151815260200191508051906020019080838360005b83811015611df2578082015181840152602081019050611dd7565b50505050905090810190601f168015611e1f5780820380516001836020036101000a031916815260200191505b509c5050505050505050505050505060405180910390a15050505050505050565b60035481565b60065481565b6060600560008381526020019081526020016000206001018054600181600116156101000203166002900480601f016020809104026020016040519081016040528092919081815260200182805460018160011615610100020316600290048015611ef85780601f10611ecd57610100808354040283529160200191611ef8565b820191906000526020600020905b815481529060010190602001808311611edb57829003601f168201915b50505050509050919050565b6009602052806000526040600020600091509050806000018054600181600116156101000203166002900480601f016020809104026020016040519081016040528092919081815260200182805460018160011615610100020316600290048015611fb05780601f10611f8557610100808354040283529160200191611fb0565b820191906000526020600020905b815481529060010190602001808311611f9357829003601f168201915b5050505050908060010154905082565b600a5481565b6007602052806000526040600020600091509050806000015490806001018054600181600116156101000203166002900480601f0160208091040260200160405190810160405280929190818152602001828054600181600116156101000203166002900480156120785780601f1061204d57610100808354040283529160200191612078565b820191906000526020600020905b81548152906001019060200180831161205b57829003601f168201915b505050505090806002018054600181600116156101000203166002900480601f0160208091040260200160405190810160405280929190818152602001828054600181600116156101000203166002900480156121165780601f106120eb57610100808354040283529160200191612116565b820191906000526020600020905b8154815290600101906020018083116120f957829003601f168201915b505050505090806003018054600181600116156101000203166002900480601f0160208091040260200160405190810160405280929190818152602001828054600181600116156101000203166002900480156121b45780601f10612189576101008083540402835291602001916121b4565b820191906000526020600020905b81548152906001019060200180831161219757829003601f168201915b5050505050908060040154908060050154908060060154908060070160009054906101000a900460ff1690806008018054600181600116156101000203166002900480601f0160208091040260200160405190810160405280929190818152602001828054600181600116156101000203166002900480156122775780601f1061224c57610100808354040283529160200191612277565b820191906000526020600020905b81548152906001019060200180831161225a57829003601f168201915b5050505050905089565b6040518060a00160405280600081526020016060815260200160608152602001600073ffffffffffffffffffffffffffffffffffffffff168152602001600081525090565b828054600181600116156101000203166002900490600052602060002090601f016020900481019282601f1061230757805160ff1916838001178555612335565b82800160010185558215612335579182015b82811115612334578251825591602001919060010190612319565b5b5090506123429190612394565b5090565b60405180610120016040528060008152602001606081526020016060815260200160608152602001600081526020016000815260200160008152602001600015158152602001606081525090565b6123b691905b808211156123b257600081600090555060010161239a565b5090565b9056fea265627a7a723158202aff2a2e0c040454dc08253082bd33818d88f06ec16536ce7334218f123d459664736f6c634300050c0032",
  "source": "pragma solidity ^0.5.0;\n\ncontract SmartCommons {\n    string public name;\n     \n    struct Member {\n        uint id;\n        string name;\n        string memberType;\n        address memberAddress;\n        uint budget;\n    }\n    uint[] public membersList;\n    uint public ownerCount = 0;\n    uint public buyerCount = 0;\n    mapping(uint => Member) public buyersOfProperty;\n    mapping(uint => Member) public owners;\n\n    function addMember(string memory _name, string memory _type, uint _budget) public {\n        require(bytes(_name).length > 0);\n        require(bytes(_type).length > 0);\n        require(_budget > 0);\n\n        address newMemberAddress;\n\n        if (keccak256(abi.encodePacked(_type)) == keccak256(abi.encodePacked('buyer'))) {\n            buyerCount++;\n            Member memory buyer = Member(buyerCount, _name, _type, newMemberAddress, _budget);\n            buyersOfProperty[buyerCount] = buyer;\n\n        } else if (keccak256(abi.encodePacked(_type)) == keccak256(abi.encodePacked('owner'))) {\n            ownerCount++;\n            Member memory owner = Member(ownerCount, _name, _type, newMemberAddress, _budget);\n            owners[ownerCount] = owner;\n        }     \n    }\n\n\n    function getBuyer(uint _buyerId) view public returns (string memory) {\n        return (buyersOfProperty[_buyerId].name);\n    }\n\n    function getOwner(uint _ownerId) view public returns (string memory) {\n        return (owners[_ownerId].name);\n    }\n\n    struct Property {\n        uint id;\n        string name;\n        string location;\n        string owner;\n        uint registered_valuation;\n        uint sell_value;\n        uint uplift_percentage;\n        bool purchased;\n        string registered_date;\n    }\n\n    uint public propertyCount = 0;\n    mapping(uint => Property) public properties;\n\n    event PropertyCreated (\n        uint id,\n        string name,\n        string location,\n        string owner,\n        uint registered_valuation,\n        uint sell_value,\n        uint uplift_percentage,\n        string registered_date\n    );\n\n    function addProperty(string memory _name, string memory _location, uint _ownerId, uint _registered_valuation, uint _sell_value, uint _uplift_percentage, string memory _registered_date) public {\n        require(bytes(_name).length > 0);\n        require(bytes(_location).length > 0);\n        require(_registered_valuation > 0);\n        require(_uplift_percentage > 0);\n        \n        string memory owner = getOwner(_ownerId);\n        propertyCount++;\n        properties[propertyCount] = Property(propertyCount, _name, _location, owner, _registered_valuation, _sell_value, _uplift_percentage, false, _registered_date);\n        emit PropertyCreated(propertyCount, _name, _location, owner, _registered_valuation, _sell_value, _uplift_percentage, _registered_date);\n    }\n\n    struct InvestmentFund {\n        string funder;\n        uint total_amount;\n    }\n    uint public nrofInvestments = 0;\n    mapping(uint => InvestmentFund) public funders;\n\n\n    struct PropertySale {\n        uint id;\n        Property property;\n        uint uplift_value;\n        uint uplift_cont_rate;\n    }\n\n    uint public propertySaleCount = 0;\n    mapping(uint => PropertySale) property_sales;\n\n    event PropertySold(\n        uint id,\n        string propertyName,\n        uint uplift_value,\n        uint uplift_cont_rate\n    );\n\n    function createSaleTransaction(uint _propertyId, uint _buyerId, uint _uplift_value, uint _uplift_cont_rate) public {\n        require(_uplift_value > 0);\n        require(_uplift_cont_rate > 0);\n        string memory newOwner = getBuyer(_buyerId);\n        Property memory _property = properties[_propertyId];\n        string memory currentOwner = _property.owner;\n        _property.owner = newOwner;\n        _property.purchased = true;\n        propertySaleCount ++;\n        property_sales[propertySaleCount] = PropertySale(propertySaleCount, _property, _uplift_value, _uplift_cont_rate);\n        nrofInvestments ++;\n        funders[nrofInvestments] = InvestmentFund(currentOwner, _uplift_value);\n        emit PropertySold(propertySaleCount, _property.name, _uplift_value, _uplift_cont_rate);\n    }\n\n    constructor() public {\n        name = \"Smart Commons\";\n    }\n}",
  "sourcePath": "/Users/ozzibroccoli/dev/lucidminds/smart-commons/src/contracts/SmartCommons.sol",
  "compiler": {
    "name": "solc",
    "version": "0.5.12+commit.7709ece9.Emscripten.clang"
  },
  "schemaVersion": "3.0.19",
  "updatedAt": "2020-01-15T16:06:52.647Z",
  "networkType": "ethereum",
  "devdoc": {
    "methods": {}
  },
  "userdoc": {
    "methods": {}
  }
}