{
  "contractName": "SmartCommons",
  "abi": [
    {
      "inputs": [],
      "payable": false,
      "stateMutability": "nonpayable",
      "type": "constructor"
    },
    {
      "anonymous": false,
      "inputs": [
        {
          "indexed": false,
          "internalType": "uint256",
          "name": "id",
          "type": "uint256"
        },
        {
          "indexed": false,
          "internalType": "string",
          "name": "name",
          "type": "string"
        },
        {
          "indexed": false,
          "internalType": "string",
          "name": "location",
          "type": "string"
        },
        {
          "indexed": false,
          "internalType": "uint256",
          "name": "price",
          "type": "uint256"
        }
      ],
      "name": "PropertyCreated",
      "type": "event"
    },
    {
      "anonymous": false,
      "inputs": [
        {
          "indexed": false,
          "internalType": "uint256",
          "name": "id",
          "type": "uint256"
        },
        {
          "indexed": false,
          "internalType": "string",
          "name": "name",
          "type": "string"
        },
        {
          "indexed": false,
          "internalType": "uint256",
          "name": "price",
          "type": "uint256"
        },
        {
          "indexed": false,
          "internalType": "uint256",
          "name": "uplift_value",
          "type": "uint256"
        },
        {
          "indexed": false,
          "internalType": "uint256",
          "name": "uplift_cont_rate",
          "type": "uint256"
        },
        {
          "indexed": false,
          "internalType": "address",
          "name": "owner",
          "type": "address"
        },
        {
          "indexed": false,
          "internalType": "bool",
          "name": "purchased",
          "type": "bool"
        }
      ],
      "name": "PropertySaleCreated",
      "type": "event"
    },
    {
      "constant": true,
      "inputs": [],
      "name": "memberCount",
      "outputs": [
        {
          "internalType": "uint256",
          "name": "",
          "type": "uint256"
        }
      ],
      "payable": false,
      "stateMutability": "view",
      "type": "function"
    },
    {
      "constant": true,
      "inputs": [
        {
          "internalType": "uint256",
          "name": "",
          "type": "uint256"
        }
      ],
      "name": "members",
      "outputs": [
        {
          "internalType": "uint256",
          "name": "id",
          "type": "uint256"
        },
        {
          "internalType": "string",
          "name": "name",
          "type": "string"
        }
      ],
      "payable": false,
      "stateMutability": "view",
      "type": "function"
    },
    {
      "constant": true,
      "inputs": [],
      "name": "name",
      "outputs": [
        {
          "internalType": "string",
          "name": "",
          "type": "string"
        }
      ],
      "payable": false,
      "stateMutability": "view",
      "type": "function"
    },
    {
      "constant": true,
      "inputs": [
        {
          "internalType": "uint256",
          "name": "",
          "type": "uint256"
        }
      ],
      "name": "properties",
      "outputs": [
        {
          "internalType": "uint256",
          "name": "id",
          "type": "uint256"
        },
        {
          "internalType": "string",
          "name": "name",
          "type": "string"
        },
        {
          "internalType": "string",
          "name": "location",
          "type": "string"
        },
        {
          "internalType": "uint256",
          "name": "price",
          "type": "uint256"
        }
      ],
      "payable": false,
      "stateMutability": "view",
      "type": "function"
    },
    {
      "constant": true,
      "inputs": [],
      "name": "propertyCount",
      "outputs": [
        {
          "internalType": "uint256",
          "name": "",
          "type": "uint256"
        }
      ],
      "payable": false,
      "stateMutability": "view",
      "type": "function"
    },
    {
      "constant": true,
      "inputs": [],
      "name": "propertySaleCount",
      "outputs": [
        {
          "internalType": "uint256",
          "name": "",
          "type": "uint256"
        }
      ],
      "payable": false,
      "stateMutability": "view",
      "type": "function"
    },
    {
      "constant": true,
      "inputs": [
        {
          "internalType": "uint256",
          "name": "",
          "type": "uint256"
        }
      ],
      "name": "property_sales",
      "outputs": [
        {
          "internalType": "uint256",
          "name": "id",
          "type": "uint256"
        },
        {
          "internalType": "string",
          "name": "name",
          "type": "string"
        },
        {
          "internalType": "uint256",
          "name": "price",
          "type": "uint256"
        },
        {
          "internalType": "uint256",
          "name": "uplift_value",
          "type": "uint256"
        },
        {
          "internalType": "uint256",
          "name": "uplift_cont_rate",
          "type": "uint256"
        },
        {
          "internalType": "address",
          "name": "owner",
          "type": "address"
        },
        {
          "internalType": "bool",
          "name": "purchased",
          "type": "bool"
        },
        {
          "internalType": "string",
          "name": "location",
          "type": "string"
        }
      ],
      "payable": false,
      "stateMutability": "view",
      "type": "function"
    },
    {
      "constant": true,
      "inputs": [],
      "name": "totalInvestmentFund",
      "outputs": [
        {
          "internalType": "uint256",
          "name": "",
          "type": "uint256"
        }
      ],
      "payable": false,
      "stateMutability": "view",
      "type": "function"
    },
    {
      "constant": false,
      "inputs": [
        {
          "internalType": "string",
          "name": "_name",
          "type": "string"
        }
      ],
      "name": "createMember",
      "outputs": [],
      "payable": false,
      "stateMutability": "nonpayable",
      "type": "function"
    },
    {
      "constant": false,
      "inputs": [
        {
          "internalType": "string",
          "name": "_name",
          "type": "string"
        },
        {
          "internalType": "string",
          "name": "_location",
          "type": "string"
        },
        {
          "internalType": "uint256",
          "name": "_price",
          "type": "uint256"
        }
      ],
      "name": "newProperty",
      "outputs": [],
      "payable": false,
      "stateMutability": "nonpayable",
      "type": "function"
    },
    {
      "constant": false,
      "inputs": [
        {
          "internalType": "string",
          "name": "_name",
          "type": "string"
        },
        {
          "internalType": "uint256",
          "name": "_price",
          "type": "uint256"
        },
        {
          "internalType": "uint256",
          "name": "_uplift_value",
          "type": "uint256"
        },
        {
          "internalType": "uint256",
          "name": "_uplift_cont_rate",
          "type": "uint256"
        },
        {
          "internalType": "string",
          "name": "_location",
          "type": "string"
        }
      ],
      "name": "createPropertySale",
      "outputs": [],
      "payable": false,
      "stateMutability": "nonpayable",
      "type": "function"
    }
  ],
  "bytecode": "0x608060405260006001556000600355600060055560006007553480156200002557600080fd5b506040518060400160405280600d81526020017f536d61727420436f6d6d6f6e730000000000000000000000000000000000000081525060009080519060200190620000739291906200007a565b5062000129565b828054600181600116156101000203166002900490600052602060002090601f016020900481019282601f10620000bd57805160ff1916838001178555620000ee565b82800160010185558215620000ee579182015b82811115620000ed578251825591602001919060010190620000d0565b5b509050620000fd919062000101565b5090565b6200012691905b808211156200012257600081600090555060010162000108565b5090565b90565b61129d80620001396000396000f3fe608060405234801561001057600080fd5b50600436106100a95760003560e01c806396ceb7781161007157806396ceb77814610377578063c361a335146104e7578063d36d341214610505578063dd69937214610672578063de3ad86514610690578063f7b108081461074b576100a9565b806306fdde03146100ae57806311aee3801461013157806332d239771461014f5780635daf08ca1461016d57806364cd36111461021b575b600080fd5b6100b661086c565b6040518080602001828103825283818151815260200191508051906020019080838360005b838110156100f65780820151818401526020810190506100db565b50505050905090810190601f1680156101235780820380516001836020036101000a031916815260200191505b509250505060405180910390f35b61013961090a565b6040518082815260200191505060405180910390f35b610157610910565b6040518082815260200191505060405180910390f35b6101996004803603602081101561018357600080fd5b8101908080359060200190929190505050610916565b6040518083815260200180602001828103825283818151815260200191508051906020019080838360005b838110156101df5780820151818401526020810190506101c4565b50505050905090810190601f16801561020c5780820380516001836020036101000a031916815260200191505b50935050505060405180910390f35b6103756004803603606081101561023157600080fd5b810190808035906020019064010000000081111561024e57600080fd5b82018360208201111561026057600080fd5b8035906020019184600183028401116401000000008311171561028257600080fd5b91908080601f016020809104026020016040519081016040528093929190818152602001838380828437600081840152601f19601f820116905080830192505050505050509192919290803590602001906401000000008111156102e557600080fd5b8201836020820111156102f757600080fd5b8035906020019184600183028401116401000000008311171561031957600080fd5b91908080601f016020809104026020016040519081016040528093929190818152602001838380828437600081840152601f19601f820116905080830192505050505050509192919290803590602001909291905050506109d2565b005b6104e5600480360360a081101561038d57600080fd5b81019080803590602001906401000000008111156103aa57600080fd5b8201836020820111156103bc57600080fd5b803590602001918460018302840111640100000000831117156103de57600080fd5b91908080601f016020809104026020016040519081016040528093929190818152602001838380828437600081840152601f19601f8201169050808301925050505050505091929192908035906020019092919080359060200190929190803590602001909291908035906020019064010000000081111561045f57600080fd5b82018360208201111561047157600080fd5b8035906020019184600183028401116401000000008311171561049357600080fd5b91908080601f016020809104026020016040519081016040528093929190818152602001838380828437600081840152601f19601f820116905080830192505050505050509192919290505050610bb6565b005b6104ef610e39565b6040518082815260200191505060405180910390f35b6105316004803603602081101561051b57600080fd5b8101908080359060200190929190505050610e3f565b60405180898152602001806020018881526020018781526020018681526020018573ffffffffffffffffffffffffffffffffffffffff1673ffffffffffffffffffffffffffffffffffffffff168152602001841515151581526020018060200183810383528a818151815260200191508051906020019080838360005b838110156105c95780820151818401526020810190506105ae565b50505050905090810190601f1680156105f65780820380516001836020036101000a031916815260200191505b50838103825284818151815260200191508051906020019080838360005b8381101561062f578082015181840152602081019050610614565b50505050905090810190601f16801561065c5780820380516001836020036101000a031916815260200191505b509a505050505050505050505060405180910390f35b61067a610fe4565b6040518082815260200191505060405180910390f35b610749600480360360208110156106a657600080fd5b81019080803590602001906401000000008111156106c357600080fd5b8201836020820111156106d557600080fd5b803590602001918460018302840111640100000000831117156106f757600080fd5b91908080601f016020809104026020016040519081016040528093929190818152602001838380828437600081840152601f19601f820116905080830192505050505050509192919290505050610fea565b005b6107776004803603602081101561076157600080fd5b8101908080359060200190929190505050611063565b604051808581526020018060200180602001848152602001838103835286818151815260200191508051906020019080838360005b838110156107c75780820151818401526020810190506107ac565b50505050905090810190601f1680156107f45780820380516001836020036101000a031916815260200191505b50838103825285818151815260200191508051906020019080838360005b8381101561082d578082015181840152602081019050610812565b50505050905090810190601f16801561085a5780820380516001836020036101000a031916815260200191505b50965050505050505060405180910390f35b60008054600181600116156101000203166002900480601f0160208091040260200160405190810160405280929190818152602001828054600181600116156101000203166002900480156109025780601f106108d757610100808354040283529160200191610902565b820191906000526020600020905b8154815290600101906020018083116108e557829003601f168201915b505050505081565b60035481565b60075481565b6004602052806000526040600020600091509050806000015490806001018054600181600116156101000203166002900480601f0160208091040260200160405190810160405280929190818152602001828054600181600116156101000203166002900480156109c85780601f1061099d576101008083540402835291602001916109c8565b820191906000526020600020905b8154815290600101906020018083116109ab57829003601f168201915b5050505050905082565b60008351116109e057600080fd5b60008251116109ee57600080fd5b600081116109fb57600080fd5b6005600081548092919060010191905055506040518060800160405280600554815260200184815260200183815260200182815250600660006005548152602001908152602001600020600082015181600001556020820151816001019080519060200190610a6b9291906111c3565b506040820151816002019080519060200190610a889291906111c3565b50606082015181600301559050507f865baffa7717a99a0b39ae853c2305f560f3ad2de1ebf3bcb101597b7b900f8a600554848484604051808581526020018060200180602001848152602001838103835286818151815260200191508051906020019080838360005b83811015610b0d578082015181840152602081019050610af2565b50505050905090810190601f168015610b3a5780820380516001836020036101000a031916815260200191505b50838103825285818151815260200191508051906020019080838360005b83811015610b73578082015181840152602081019050610b58565b50505050905090810190601f168015610ba05780820380516001836020036101000a031916815260200191505b50965050505050505060405180910390a1505050565b6000855111610bc457600080fd5b60008411610bd157600080fd5b60008311610bde57600080fd5b60008211610beb57600080fd5b60016000815480929190600101919050555060405180610100016040528060015481526020018681526020018581526020018481526020018381526020013373ffffffffffffffffffffffffffffffffffffffff16815260200160001515815260200182815250600260006001548152602001908152602001600020600082015181600001556020820151816001019080519060200190610c8d9291906111c3565b5060408201518160020155606082015181600301556080820151816004015560a08201518160050160006101000a81548173ffffffffffffffffffffffffffffffffffffffff021916908373ffffffffffffffffffffffffffffffffffffffff16021790555060c08201518160050160146101000a81548160ff02191690831515021790555060e0820151816006019080519060200190610d2f9291906111c3565b509050507f0eb17fd693f9007784e2fbb4e3782ddcca70d906e9464d140731019a12303a286001548686868633600060405180888152602001806020018781526020018681526020018581526020018473ffffffffffffffffffffffffffffffffffffffff1673ffffffffffffffffffffffffffffffffffffffff16815260200183151515158152602001828103825288818151815260200191508051906020019080838360005b83811015610df2578082015181840152602081019050610dd7565b50505050905090810190601f168015610e1f5780820380516001836020036101000a031916815260200191505b509850505050505050505060405180910390a15050505050565b60055481565b6002602052806000526040600020600091509050806000015490806001018054600181600116156101000203166002900480601f016020809104026020016040519081016040528092919081815260200182805460018160011615610100020316600290048015610ef15780601f10610ec657610100808354040283529160200191610ef1565b820191906000526020600020905b815481529060010190602001808311610ed457829003601f168201915b5050505050908060020154908060030154908060040154908060050160009054906101000a900473ffffffffffffffffffffffffffffffffffffffff16908060050160149054906101000a900460ff1690806006018054600181600116156101000203166002900480601f016020809104026020016040519081016040528092919081815260200182805460018160011615610100020316600290048015610fda5780601f10610faf57610100808354040283529160200191610fda565b820191906000526020600020905b815481529060010190602001808311610fbd57829003601f168201915b5050505050905088565b60015481565b6003600081548092919060010191905055506040518060400160405280600354815260200182815250600460006003600081548092919060010191905055815260200190815260200160002060008201518160000155602082015181600101908051906020019061105c9291906111c3565b5090505050565b6006602052806000526040600020600091509050806000015490806001018054600181600116156101000203166002900480601f0160208091040260200160405190810160405280929190818152602001828054600181600116156101000203166002900480156111155780601f106110ea57610100808354040283529160200191611115565b820191906000526020600020905b8154815290600101906020018083116110f857829003601f168201915b505050505090806002018054600181600116156101000203166002900480601f0160208091040260200160405190810160405280929190818152602001828054600181600116156101000203166002900480156111b35780601f10611188576101008083540402835291602001916111b3565b820191906000526020600020905b81548152906001019060200180831161119657829003601f168201915b5050505050908060030154905084565b828054600181600116156101000203166002900490600052602060002090601f016020900481019282601f1061120457805160ff1916838001178555611232565b82800160010185558215611232579182015b82811115611231578251825591602001919060010190611216565b5b50905061123f9190611243565b5090565b61126591905b80821115611261576000816000905550600101611249565b5090565b9056fea265627a7a723158206592e23789ce66c5b7949bc7dad97b5dbb7de8fef94425942469216f7dde7e7164736f6c634300050c0032",
  "source": "pragma solidity ^0.5.0;\n\ncontract SmartCommons {\n    string public name;\n \n    uint public propertySaleCount = 0;\n    mapping(uint => PropertySale) public property_sales;\n\n    struct Member {\n        uint id;\n        string name;\n        mapping(uint => Property) properties;\n    }\n    uint public memberCount = 0;\n    mapping(uint => Member) public members;\n\n    function createMember(string memory _name) public {\n        memberCount++;\n        members[memberCount++] = Member(memberCount, _name);\n    }\n\n    struct Property {\n        uint id;\n        string name;\n        string location;\n        uint price;\n    }\n    uint public propertyCount = 0;\n    mapping(uint => Property) public properties;\n    \n    event PropertyCreated (\n        uint id,\n        string name,\n        string location,\n        uint price\n    );\n\n    function newProperty(string memory _name, string memory _location, uint _price) public {\n        require(bytes(_name).length > 0);\n        require(bytes(_location).length > 0);\n        require(_price > 0);\n        \n        propertyCount++;\n        properties[propertyCount] = Property(propertyCount, _name, _location, _price);\n        emit PropertyCreated(propertyCount, _name, _location, _price);\n    }\n\n    struct InvestmentFund {\n        address fund;\n        uint total_amount;\n        mapping (uint => Member) members;\n    }\n    uint public totalInvestmentFund = 0;\n\n\n    struct PropertySale {\n        uint id;\n        string name;\n        uint price;\n        uint uplift_value;\n        uint uplift_cont_rate;\n        address owner;\n        bool purchased;\n        string location;\n    }\n\n    event PropertySaleCreated(\n        uint id,\n        string name,\n        uint price,\n        uint uplift_value,\n        uint uplift_cont_rate,\n        address owner,\n        bool purchased\n    );\n\n    function createPropertySale(string memory _name, uint _price, uint _uplift_value, uint _uplift_cont_rate, string memory _location) public {\n        require(bytes(_name).length > 0);\n        require(_price > 0);\n        require(_uplift_value > 0);\n        require(_uplift_cont_rate > 0);\n\n        propertySaleCount ++;\n        property_sales[propertySaleCount] = PropertySale(propertySaleCount, _name, _price, _uplift_value, _uplift_cont_rate, msg.sender, false, _location);\n        emit PropertySaleCreated(propertySaleCount, _name, _price, _uplift_value, _uplift_cont_rate, msg.sender, false);\n    }\n\n\n\n    constructor() public {\n        name = \"Smart Commons\";\n    }\n}",
  "sourcePath": "/Users/ozzibroccoli/dev/lucidminds/smart-commons/src/contracts/SmartCommons.sol",
  "compiler": {
    "name": "solc",
    "version": "0.5.12+commit.7709ece9.Emscripten.clang"
  },
  "schemaVersion": "3.0.19",
  "updatedAt": "2019-12-19T11:35:19.690Z",
  "devdoc": {
    "methods": {}
  },
  "userdoc": {
    "methods": {}
  }
}