{
  "contractName": "SmartCommons",
  "abi": [
    {
      "inputs": [],
      "payable": false,
      "stateMutability": "nonpayable",
      "type": "constructor"
    },
    {
      "anonymous": false,
      "inputs": [
        {
          "indexed": false,
          "internalType": "uint256",
          "name": "id",
          "type": "uint256"
        },
        {
          "indexed": false,
          "internalType": "string",
          "name": "name",
          "type": "string"
        },
        {
          "indexed": false,
          "internalType": "string",
          "name": "location",
          "type": "string"
        },
        {
          "indexed": false,
          "internalType": "string",
          "name": "owner",
          "type": "string"
        },
        {
          "indexed": false,
          "internalType": "uint256",
          "name": "price",
          "type": "uint256"
        }
      ],
      "name": "PropertyCreated",
      "type": "event"
    },
    {
      "anonymous": false,
      "inputs": [
        {
          "indexed": false,
          "internalType": "uint256",
          "name": "id",
          "type": "uint256"
        },
        {
          "indexed": false,
          "internalType": "uint256",
          "name": "price",
          "type": "uint256"
        },
        {
          "indexed": false,
          "internalType": "uint256",
          "name": "uplift_value",
          "type": "uint256"
        },
        {
          "indexed": false,
          "internalType": "uint256",
          "name": "uplift_cont_rate",
          "type": "uint256"
        },
        {
          "indexed": false,
          "internalType": "string",
          "name": "location",
          "type": "string"
        }
      ],
      "name": "PropertySold",
      "type": "event"
    },
    {
      "constant": true,
      "inputs": [],
      "name": "buyerCount",
      "outputs": [
        {
          "internalType": "uint256",
          "name": "",
          "type": "uint256"
        }
      ],
      "payable": false,
      "stateMutability": "view",
      "type": "function"
    },
    {
      "constant": true,
      "inputs": [
        {
          "internalType": "address",
          "name": "",
          "type": "address"
        }
      ],
      "name": "buyersOfProperty",
      "outputs": [
        {
          "internalType": "address",
          "name": "memberAddress",
          "type": "address"
        },
        {
          "internalType": "string",
          "name": "name",
          "type": "string"
        },
        {
          "internalType": "enum SmartCommons.MemberType",
          "name": "memberType",
          "type": "uint8"
        },
        {
          "internalType": "uint256",
          "name": "budget",
          "type": "uint256"
        }
      ],
      "payable": false,
      "stateMutability": "view",
      "type": "function"
    },
    {
      "constant": true,
      "inputs": [],
      "name": "name",
      "outputs": [
        {
          "internalType": "string",
          "name": "",
          "type": "string"
        }
      ],
      "payable": false,
      "stateMutability": "view",
      "type": "function"
    },
    {
      "constant": true,
      "inputs": [],
      "name": "ownerCount",
      "outputs": [
        {
          "internalType": "uint256",
          "name": "",
          "type": "uint256"
        }
      ],
      "payable": false,
      "stateMutability": "view",
      "type": "function"
    },
    {
      "constant": true,
      "inputs": [
        {
          "internalType": "address",
          "name": "",
          "type": "address"
        }
      ],
      "name": "ownersOfProperty",
      "outputs": [
        {
          "internalType": "address",
          "name": "memberAddress",
          "type": "address"
        },
        {
          "internalType": "string",
          "name": "name",
          "type": "string"
        },
        {
          "internalType": "enum SmartCommons.MemberType",
          "name": "memberType",
          "type": "uint8"
        },
        {
          "internalType": "uint256",
          "name": "budget",
          "type": "uint256"
        }
      ],
      "payable": false,
      "stateMutability": "view",
      "type": "function"
    },
    {
      "constant": true,
      "inputs": [
        {
          "internalType": "uint256",
          "name": "",
          "type": "uint256"
        }
      ],
      "name": "properties",
      "outputs": [
        {
          "internalType": "uint256",
          "name": "id",
          "type": "uint256"
        },
        {
          "internalType": "string",
          "name": "name",
          "type": "string"
        },
        {
          "internalType": "string",
          "name": "location",
          "type": "string"
        },
        {
          "internalType": "string",
          "name": "owner",
          "type": "string"
        },
        {
          "internalType": "uint256",
          "name": "price",
          "type": "uint256"
        }
      ],
      "payable": false,
      "stateMutability": "view",
      "type": "function"
    },
    {
      "constant": true,
      "inputs": [],
      "name": "propertyCount",
      "outputs": [
        {
          "internalType": "uint256",
          "name": "",
          "type": "uint256"
        }
      ],
      "payable": false,
      "stateMutability": "view",
      "type": "function"
    },
    {
      "constant": true,
      "inputs": [],
      "name": "propertySaleCount",
      "outputs": [
        {
          "internalType": "uint256",
          "name": "",
          "type": "uint256"
        }
      ],
      "payable": false,
      "stateMutability": "view",
      "type": "function"
    },
    {
      "constant": true,
      "inputs": [],
      "name": "totalInvestmentFund",
      "outputs": [
        {
          "internalType": "uint256",
          "name": "",
          "type": "uint256"
        }
      ],
      "payable": false,
      "stateMutability": "view",
      "type": "function"
    },
    {
      "constant": false,
      "inputs": [
        {
          "internalType": "address",
          "name": "_memberAddress",
          "type": "address"
        },
        {
          "internalType": "string",
          "name": "_name",
          "type": "string"
        },
        {
          "internalType": "enum SmartCommons.MemberType",
          "name": "_type",
          "type": "uint8"
        },
        {
          "internalType": "uint256",
          "name": "_budget",
          "type": "uint256"
        }
      ],
      "name": "addMember",
      "outputs": [],
      "payable": false,
      "stateMutability": "nonpayable",
      "type": "function"
    },
    {
      "constant": true,
      "inputs": [
        {
          "internalType": "address",
          "name": "_buyerAddress",
          "type": "address"
        }
      ],
      "name": "getBuyer",
      "outputs": [
        {
          "internalType": "string",
          "name": "",
          "type": "string"
        }
      ],
      "payable": false,
      "stateMutability": "view",
      "type": "function"
    },
    {
      "constant": true,
      "inputs": [
        {
          "internalType": "address",
          "name": "_ownerAddress",
          "type": "address"
        }
      ],
      "name": "getOwner",
      "outputs": [
        {
          "internalType": "string",
          "name": "",
          "type": "string"
        }
      ],
      "payable": false,
      "stateMutability": "view",
      "type": "function"
    },
    {
      "constant": false,
      "inputs": [
        {
          "internalType": "string",
          "name": "_name",
          "type": "string"
        },
        {
          "internalType": "string",
          "name": "_location",
          "type": "string"
        },
        {
          "internalType": "address",
          "name": "_ownerAddress",
          "type": "address"
        },
        {
          "internalType": "uint256",
          "name": "_price",
          "type": "uint256"
        }
      ],
      "name": "addProperty",
      "outputs": [],
      "payable": false,
      "stateMutability": "nonpayable",
      "type": "function"
    },
    {
      "constant": false,
      "inputs": [
        {
          "internalType": "uint256",
          "name": "_propertyId",
          "type": "uint256"
        },
        {
          "internalType": "address",
          "name": "_buyerAddress",
          "type": "address"
        },
        {
          "internalType": "uint256",
          "name": "_uplift_value",
          "type": "uint256"
        },
        {
          "internalType": "uint256",
          "name": "_uplift_cont_rate",
          "type": "uint256"
        }
      ],
      "name": "createSaleTransaction",
      "outputs": [],
      "payable": false,
      "stateMutability": "nonpayable",
      "type": "function"
    }
  ],
  "bytecode": "0x6080604052600060015560006002556000600555600060075560006009553480156200002a57600080fd5b506040518060400160405280600d81526020017f536d61727420436f6d6d6f6e730000000000000000000000000000000000000081525060009080519060200190620000789291906200007f565b506200012e565b828054600181600116156101000203166002900490600052602060002090601f016020900481019282601f10620000c257805160ff1916838001178555620000f3565b82800160010185558215620000f3579182015b82811115620000f2578251825591602001919060010190620000d5565b5b50905062000102919062000106565b5090565b6200012b91905b80821115620001275760008160009055506001016200010d565b5090565b90565b611a30806200013e6000396000f3fe608060405234801561001057600080fd5b50600436106100ea5760003560e01c80639e0cea051161008c578063dd69937211610066578063dd6993721461069d578063e3d0fb11146106bb578063f7b10808146107ad578063fa5441611461093a576100ea565b80639e0cea05146104e5578063a289a98914610503578063c361a3351461067f576100ea565b8063175c4fd5116100c8578063175c4fd51461029c57806332d23977146103a85780635721e419146103c6578063979e5bfa14610483576100ea565b8063021beb61146100ef57806306fdde03146101fb5780630db026221461027e575b600080fd5b6101316004803603602081101561010557600080fd5b81019080803573ffffffffffffffffffffffffffffffffffffffff1690602001909291905050506109f7565b604051808573ffffffffffffffffffffffffffffffffffffffff1673ffffffffffffffffffffffffffffffffffffffff1681526020018060200184600181111561017757fe5b60ff168152602001838152602001828103825285818151815260200191508051906020019080838360005b838110156101bd5780820151818401526020810190506101a2565b50505050905090810190601f1680156101ea5780820380516001836020036101000a031916815260200191505b509550505050505060405180910390f35b610203610aec565b6040518080602001828103825283818151815260200191508051906020019080838360005b83811015610243578082015181840152602081019050610228565b50505050905090810190601f1680156102705780820380516001836020036101000a031916815260200191505b509250505060405180910390f35b610286610b8a565b6040518082815260200191505060405180910390f35b6102de600480360360208110156102b257600080fd5b81019080803573ffffffffffffffffffffffffffffffffffffffff169060200190929190505050610b90565b604051808573ffffffffffffffffffffffffffffffffffffffff1673ffffffffffffffffffffffffffffffffffffffff1681526020018060200184600181111561032457fe5b60ff168152602001838152602001828103825285818151815260200191508051906020019080838360005b8381101561036a57808201518184015260208101905061034f565b50505050905090810190601f1680156103975780820380516001836020036101000a031916815260200191505b509550505050505060405180910390f35b6103b0610c85565b6040518082815260200191505060405180910390f35b610408600480360360208110156103dc57600080fd5b81019080803573ffffffffffffffffffffffffffffffffffffffff169060200190929190505050610c8b565b6040518080602001828103825283818151815260200191508051906020019080838360005b8381101561044857808201518184015260208101905061042d565b50505050905090810190601f1680156104755780820380516001836020036101000a031916815260200191505b509250505060405180910390f35b6104e36004803603608081101561049957600080fd5b8101908080359060200190929190803573ffffffffffffffffffffffffffffffffffffffff1690602001909291908035906020019092919080359060200190929190505050610d6f565b005b6104ed6110aa565b6040518082815260200191505060405180910390f35b61067d6004803603608081101561051957600080fd5b810190808035906020019064010000000081111561053657600080fd5b82018360208201111561054857600080fd5b8035906020019184600183028401116401000000008311171561056a57600080fd5b91908080601f016020809104026020016040519081016040528093929190818152602001838380828437600081840152601f19601f820116905080830192505050505050509192919290803590602001906401000000008111156105cd57600080fd5b8201836020820111156105df57600080fd5b8035906020019184600183028401116401000000008311171561060157600080fd5b91908080601f016020809104026020016040519081016040528093929190818152602001838380828437600081840152601f19601f820116905080830192505050505050509192919290803573ffffffffffffffffffffffffffffffffffffffff169060200190929190803590602001909291905050506110b0565b005b610687611333565b6040518082815260200191505060405180910390f35b6106a5611339565b6040518082815260200191505060405180910390f35b6107ab600480360360808110156106d157600080fd5b81019080803573ffffffffffffffffffffffffffffffffffffffff1690602001909291908035906020019064010000000081111561070e57600080fd5b82018360208201111561072057600080fd5b8035906020019184600183028401116401000000008311171561074257600080fd5b91908080601f016020809104026020016040519081016040528093929190818152602001838380828437600081840152601f19601f820116905080830192505050505050509192919290803560ff1690602001909291908035906020019092919050505061133f565b005b6107d9600480360360208110156107c357600080fd5b81019080803590602001909291905050506115fc565b60405180868152602001806020018060200180602001858152602001848103845288818151815260200191508051906020019080838360005b8381101561082d578082015181840152602081019050610812565b50505050905090810190601f16801561085a5780820380516001836020036101000a031916815260200191505b50848103835287818151815260200191508051906020019080838360005b83811015610893578082015181840152602081019050610878565b50505050905090810190601f1680156108c05780820380516001836020036101000a031916815260200191505b50848103825286818151815260200191508051906020019080838360005b838110156108f95780820151818401526020810190506108de565b50505050905090810190601f1680156109265780820380516001836020036101000a031916815260200191505b509850505050505050505060405180910390f35b61097c6004803603602081101561095057600080fd5b81019080803573ffffffffffffffffffffffffffffffffffffffff1690602001909291905050506117fa565b6040518080602001828103825283818151815260200191508051906020019080838360005b838110156109bc5780820151818401526020810190506109a1565b50505050905090810190601f1680156109e95780820380516001836020036101000a031916815260200191505b509250505060405180910390f35b60036020528060005260406000206000915090508060000160009054906101000a900473ffffffffffffffffffffffffffffffffffffffff1690806001018054600181600116156101000203166002900480601f016020809104026020016040519081016040528092919081815260200182805460018160011615610100020316600290048015610ac95780601f10610a9e57610100808354040283529160200191610ac9565b820191906000526020600020905b815481529060010190602001808311610aac57829003601f168201915b5050505050908060020160009054906101000a900460ff16908060030154905084565b60008054600181600116156101000203166002900480601f016020809104026020016040519081016040528092919081815260200182805460018160011615610100020316600290048015610b825780601f10610b5757610100808354040283529160200191610b82565b820191906000526020600020905b815481529060010190602001808311610b6557829003601f168201915b505050505081565b60015481565b60046020528060005260406000206000915090508060000160009054906101000a900473ffffffffffffffffffffffffffffffffffffffff1690806001018054600181600116156101000203166002900480601f016020809104026020016040519081016040528092919081815260200182805460018160011615610100020316600290048015610c625780601f10610c3757610100808354040283529160200191610c62565b820191906000526020600020905b815481529060010190602001808311610c4557829003601f168201915b5050505050908060020160009054906101000a900460ff16908060030154905084565b60075481565b6060600360008373ffffffffffffffffffffffffffffffffffffffff1673ffffffffffffffffffffffffffffffffffffffff1681526020019081526020016000206001018054600181600116156101000203166002900480601f016020809104026020016040519081016040528092919081815260200182805460018160011615610100020316600290048015610d635780601f10610d3857610100808354040283529160200191610d63565b820191906000526020600020905b815481529060010190602001808311610d4657829003601f168201915b50505050509050919050565b60008211610d7c57600080fd5b60008111610d8957600080fd5b6060610d9484610c8b565b9050610d9e6118de565b600660008781526020019081526020016000206040518060a001604052908160008201548152602001600182018054600181600116156101000203166002900480601f016020809104026020016040519081016040528092919081815260200182805460018160011615610100020316600290048015610e5f5780601f10610e3457610100808354040283529160200191610e5f565b820191906000526020600020905b815481529060010190602001808311610e4257829003601f168201915b50505050508152602001600282018054600181600116156101000203166002900480601f016020809104026020016040519081016040528092919081815260200182805460018160011615610100020316600290048015610f015780601f10610ed657610100808354040283529160200191610f01565b820191906000526020600020905b815481529060010190602001808311610ee457829003601f168201915b50505050508152602001600382018054600181600116156101000203166002900480601f016020809104026020016040519081016040528092919081815260200182805460018160011615610100020316600290048015610fa35780601f10610f7857610100808354040283529160200191610fa3565b820191906000526020600020905b815481529060010190602001808311610f8657829003601f168201915b5050505050815260200160048201548152505090508181606001819052506009600081548092919060010191905055506040518060800160405280600954815260200182815260200185815260200184815250600a600060095481526020019081526020016000206000820151816000015560208201518160010160008201518160000155602082015181600101908051906020019061104492919061190d565b50604082015181600201908051906020019061106192919061190d565b50606082015181600301908051906020019061107e92919061190d565b506080820151816004015550506040820151816006015560608201518160070155905050505050505050565b60025481565b60008451116110be57600080fd5b60008351116110cc57600080fd5b600081116110d957600080fd5b60606110e4836117fa565b90506005600081548092919060010191905055506040518060a0016040528060055481526020018681526020018581526020018281526020018381525060066000600554815260200190815260200160002060008201518160000155602082015181600101908051906020019061115c92919061190d565b50604082015181600201908051906020019061117992919061190d565b50606082015181600301908051906020019061119692919061190d565b50608082015181600401559050507f06ab8df272ec1d14bcadac322c592708ba1d07004cdb689caabc425ef5bd42936005548686848660405180868152602001806020018060200180602001858152602001848103845288818151815260200191508051906020019080838360005b83811015611220578082015181840152602081019050611205565b50505050905090810190601f16801561124d5780820380516001836020036101000a031916815260200191505b50848103835287818151815260200191508051906020019080838360005b8381101561128657808201518184015260208101905061126b565b50505050905090810190601f1680156112b35780820380516001836020036101000a031916815260200191505b50848103825286818151815260200191508051906020019080838360005b838110156112ec5780820151818401526020810190506112d1565b50505050905090810190601f1680156113195780820380516001836020036101000a031916815260200191505b509850505050505050505060405180910390a15050505050565b60055481565b60095481565b60018081111561134b57fe5b82600181111561135757fe5b141561149b5761136561198d565b60405180608001604052808673ffffffffffffffffffffffffffffffffffffffff16815260200185815260200160018081111561139e57fe5b815260200183815250905080600360008773ffffffffffffffffffffffffffffffffffffffff1673ffffffffffffffffffffffffffffffffffffffff16815260200190815260200160002060008201518160000160006101000a81548173ffffffffffffffffffffffffffffffffffffffff021916908373ffffffffffffffffffffffffffffffffffffffff160217905550602082015181600101908051906020019061144c92919061190d565b5060408201518160020160006101000a81548160ff0219169083600181111561147157fe5b021790555060608201518160030155905050600260008154809291906001019190505550506115f6565b600060018111156114a857fe5b8260018111156114b457fe5b14156115f5576114c261198d565b60405180608001604052808673ffffffffffffffffffffffffffffffffffffffff168152602001858152602001600060018111156114fc57fe5b815260200183815250905080600460008773ffffffffffffffffffffffffffffffffffffffff1673ffffffffffffffffffffffffffffffffffffffff16815260200190815260200160002060008201518160000160006101000a81548173ffffffffffffffffffffffffffffffffffffffff021916908373ffffffffffffffffffffffffffffffffffffffff16021790555060208201518160010190805190602001906115aa92919061190d565b5060408201518160020160006101000a81548160ff021916908360018111156115cf57fe5b021790555060608201518160030155905050600160008154809291906001019190505550505b5b50505050565b6006602052806000526040600020600091509050806000015490806001018054600181600116156101000203166002900480601f0160208091040260200160405190810160405280929190818152602001828054600181600116156101000203166002900480156116ae5780601f10611683576101008083540402835291602001916116ae565b820191906000526020600020905b81548152906001019060200180831161169157829003601f168201915b505050505090806002018054600181600116156101000203166002900480601f01602080910402602001604051908101604052809291908181526020018280546001816001161561010002031660029004801561174c5780601f106117215761010080835404028352916020019161174c565b820191906000526020600020905b81548152906001019060200180831161172f57829003601f168201915b505050505090806003018054600181600116156101000203166002900480601f0160208091040260200160405190810160405280929190818152602001828054600181600116156101000203166002900480156117ea5780601f106117bf576101008083540402835291602001916117ea565b820191906000526020600020905b8154815290600101906020018083116117cd57829003601f168201915b5050505050908060040154905085565b6060600460008373ffffffffffffffffffffffffffffffffffffffff1673ffffffffffffffffffffffffffffffffffffffff1681526020019081526020016000206001018054600181600116156101000203166002900480601f0160208091040260200160405190810160405280929190818152602001828054600181600116156101000203166002900480156118d25780601f106118a7576101008083540402835291602001916118d2565b820191906000526020600020905b8154815290600101906020018083116118b557829003601f168201915b50505050509050919050565b6040518060a0016040528060008152602001606081526020016060815260200160608152602001600081525090565b828054600181600116156101000203166002900490600052602060002090601f016020900481019282601f1061194e57805160ff191683800117855561197c565b8280016001018555821561197c579182015b8281111561197b578251825591602001919060010190611960565b5b50905061198991906119d6565b5090565b6040518060800160405280600073ffffffffffffffffffffffffffffffffffffffff16815260200160608152602001600060018111156119c957fe5b8152602001600081525090565b6119f891905b808211156119f45760008160009055506001016119dc565b5090565b9056fea265627a7a72315820ba5ac3cdba8a41584ebf043bb856280b07145cde80d778a9b83a985e2c6dd0a264736f6c634300050c0032",
  "source": "pragma solidity ^0.5.0;\n\ncontract SmartCommons {\n    string public name;\n \n    enum MemberType {owner, buyer}\n    \n    struct Member {\n        address memberAddress;\n        string name;\n        MemberType memberType;\n        uint budget;\n    }\n\n    uint public ownerCount = 0;\n    uint public buyerCount = 0;\n    mapping(address => Member) public buyersOfProperty;\n    mapping(address => Member) public ownersOfProperty;\n\n    function addMember(address _memberAddress, string memory _name, MemberType _type, uint _budget) public {\n\n        if (_type == MemberType.buyer) {\n             Member memory buyer = Member(_memberAddress, _name, MemberType.buyer, _budget);\n             buyersOfProperty[_memberAddress] = buyer;\n             buyerCount++;\n\n        } else if (_type == MemberType.owner) {\n            Member memory owner = Member(_memberAddress, _name, MemberType.owner, _budget);\n            ownersOfProperty[_memberAddress] = owner;\n            ownerCount++;\n        }\n    }\n\n    function getBuyer(address _buyerAddress) view public returns (string memory) {\n        return buyersOfProperty[_buyerAddress].name;\n    }\n\n    function getOwner(address _ownerAddress) view public returns (string memory) {\n        return ownersOfProperty[_ownerAddress].name;\n    }\n\n    struct Property {\n        uint id;\n        string name;\n        string location;\n        string owner;\n        uint price;\n    }\n\n    uint public propertyCount = 0;\n    mapping(uint => Property) public properties;\n    \n    event PropertyCreated (\n        uint id,\n        string name,\n        string location,\n        string owner,\n        uint price\n    );\n\n    function addProperty(string memory _name, string memory _location, address _ownerAddress, uint _price) public {\n        require(bytes(_name).length > 0);\n        require(bytes(_location).length > 0);\n        require(_price > 0);\n        \n        string memory owner = getOwner(_ownerAddress);\n        propertyCount++;\n        properties[propertyCount] = Property(propertyCount, _name, _location, owner, _price);\n        emit PropertyCreated(propertyCount, _name, _location, owner, _price);\n    }\n\n    struct InvestmentFund {\n        address fund;\n        uint total_amount;\n        mapping (uint => Member) members;\n    }\n    uint public totalInvestmentFund = 0;\n    mapping (address => Member[]) funders;\n\n\n    struct PropertySale {\n        uint id;\n        Property property;\n        uint uplift_value;\n        uint uplift_cont_rate;\n    }\n\n    uint public propertySaleCount = 0;\n    mapping(uint => PropertySale) property_sales;\n\n    event PropertySold(\n        uint id,\n        uint price,\n        uint uplift_value,\n        uint uplift_cont_rate,\n        string location\n    );\n\n    function createSaleTransaction(uint _propertyId, address _buyerAddress, uint _uplift_value, uint _uplift_cont_rate) public {\n        require(_uplift_value > 0);\n        require(_uplift_cont_rate > 0);\n        string memory newOwner = getBuyer(_buyerAddress);\n        Property memory _property = properties[_propertyId];\n        _property.owner = newOwner;\n        propertySaleCount ++;\n        property_sales[propertySaleCount] = PropertySale(propertySaleCount, _property, _uplift_value, _uplift_cont_rate);\n\n    }\n\n    constructor() public {\n        name = \"Smart Commons\";\n    }\n}",
  "sourcePath": "/Users/ozzibroccoli/dev/lucidminds/smart-commons/src/contracts/SmartCommons.sol",
  "compiler": {
    "name": "solc",
    "version": "0.5.12+commit.7709ece9.Emscripten.clang"
  },
  "schemaVersion": "3.0.19",
  "updatedAt": "2020-01-02T15:26:53.729Z",
  "devdoc": {
    "methods": {}
  },
  "userdoc": {
    "methods": {}
  }
}