{
  "contractName": "SmartCommons",
  "abi": [
    {
      "inputs": [],
      "payable": false,
      "stateMutability": "nonpayable",
      "type": "constructor"
    },
    {
      "anonymous": false,
      "inputs": [
        {
          "indexed": false,
          "internalType": "uint256",
          "name": "id",
          "type": "uint256"
        },
        {
          "indexed": false,
          "internalType": "string",
          "name": "name",
          "type": "string"
        },
        {
          "indexed": false,
          "internalType": "string",
          "name": "location",
          "type": "string"
        },
        {
          "indexed": false,
          "internalType": "string",
          "name": "owner",
          "type": "string"
        },
        {
          "indexed": false,
          "internalType": "uint256",
          "name": "registered_valuation",
          "type": "uint256"
        },
        {
          "indexed": false,
          "internalType": "uint256",
          "name": "sell_value",
          "type": "uint256"
        },
        {
          "indexed": false,
          "internalType": "uint256",
          "name": "uplift_percentage",
          "type": "uint256"
        },
        {
          "indexed": false,
          "internalType": "string",
          "name": "registered_date",
          "type": "string"
        }
      ],
      "name": "PropertyCreated",
      "type": "event"
    },
    {
      "anonymous": false,
      "inputs": [
        {
          "indexed": false,
          "internalType": "uint256",
          "name": "id",
          "type": "uint256"
        },
        {
          "indexed": false,
          "internalType": "string",
          "name": "propertyName",
          "type": "string"
        },
        {
          "indexed": false,
          "internalType": "uint256",
          "name": "uplift_value",
          "type": "uint256"
        },
        {
          "indexed": false,
          "internalType": "uint256",
          "name": "uplift_cont_rate",
          "type": "uint256"
        }
      ],
      "name": "PropertySold",
      "type": "event"
    },
    {
      "constant": true,
      "inputs": [],
      "name": "buyerCount",
      "outputs": [
        {
          "internalType": "uint256",
          "name": "",
          "type": "uint256"
        }
      ],
      "payable": false,
      "stateMutability": "view",
      "type": "function"
    },
    {
      "constant": true,
      "inputs": [
        {
          "internalType": "uint256",
          "name": "",
          "type": "uint256"
        }
      ],
      "name": "buyersOfProperty",
      "outputs": [
        {
          "internalType": "uint256",
          "name": "id",
          "type": "uint256"
        },
        {
          "internalType": "string",
          "name": "name",
          "type": "string"
        },
        {
          "internalType": "string",
          "name": "memberType",
          "type": "string"
        },
        {
          "internalType": "address",
          "name": "memberAddress",
          "type": "address"
        },
        {
          "internalType": "uint256",
          "name": "budget",
          "type": "uint256"
        }
      ],
      "payable": false,
      "stateMutability": "view",
      "type": "function"
    },
    {
      "constant": true,
      "inputs": [
        {
          "internalType": "uint256",
          "name": "",
          "type": "uint256"
        }
      ],
      "name": "funders",
      "outputs": [
        {
          "internalType": "string",
          "name": "funder",
          "type": "string"
        },
        {
          "internalType": "uint256",
          "name": "total_amount",
          "type": "uint256"
        }
      ],
      "payable": false,
      "stateMutability": "view",
      "type": "function"
    },
    {
      "constant": true,
      "inputs": [
        {
          "internalType": "uint256",
          "name": "",
          "type": "uint256"
        }
      ],
      "name": "membersList",
      "outputs": [
        {
          "internalType": "uint256",
          "name": "",
          "type": "uint256"
        }
      ],
      "payable": false,
      "stateMutability": "view",
      "type": "function"
    },
    {
      "constant": true,
      "inputs": [],
      "name": "name",
      "outputs": [
        {
          "internalType": "string",
          "name": "",
          "type": "string"
        }
      ],
      "payable": false,
      "stateMutability": "view",
      "type": "function"
    },
    {
      "constant": true,
      "inputs": [],
      "name": "nrofInvestments",
      "outputs": [
        {
          "internalType": "uint256",
          "name": "",
          "type": "uint256"
        }
      ],
      "payable": false,
      "stateMutability": "view",
      "type": "function"
    },
    {
      "constant": true,
      "inputs": [],
      "name": "ownerCount",
      "outputs": [
        {
          "internalType": "uint256",
          "name": "",
          "type": "uint256"
        }
      ],
      "payable": false,
      "stateMutability": "view",
      "type": "function"
    },
    {
      "constant": true,
      "inputs": [
        {
          "internalType": "uint256",
          "name": "",
          "type": "uint256"
        }
      ],
      "name": "owners",
      "outputs": [
        {
          "internalType": "uint256",
          "name": "id",
          "type": "uint256"
        },
        {
          "internalType": "string",
          "name": "name",
          "type": "string"
        },
        {
          "internalType": "string",
          "name": "memberType",
          "type": "string"
        },
        {
          "internalType": "address",
          "name": "memberAddress",
          "type": "address"
        },
        {
          "internalType": "uint256",
          "name": "budget",
          "type": "uint256"
        }
      ],
      "payable": false,
      "stateMutability": "view",
      "type": "function"
    },
    {
      "constant": true,
      "inputs": [
        {
          "internalType": "uint256",
          "name": "",
          "type": "uint256"
        }
      ],
      "name": "properties",
      "outputs": [
        {
          "internalType": "uint256",
          "name": "id",
          "type": "uint256"
        },
        {
          "internalType": "string",
          "name": "name",
          "type": "string"
        },
        {
          "internalType": "string",
          "name": "location",
          "type": "string"
        },
        {
          "internalType": "string",
          "name": "owner",
          "type": "string"
        },
        {
          "internalType": "uint256",
          "name": "registered_valuation",
          "type": "uint256"
        },
        {
          "internalType": "uint256",
          "name": "sell_value",
          "type": "uint256"
        },
        {
          "internalType": "uint256",
          "name": "uplift_percentage",
          "type": "uint256"
        },
        {
          "internalType": "bool",
          "name": "purchased",
          "type": "bool"
        },
        {
          "internalType": "string",
          "name": "registered_date",
          "type": "string"
        }
      ],
      "payable": false,
      "stateMutability": "view",
      "type": "function"
    },
    {
      "constant": true,
      "inputs": [],
      "name": "propertyCount",
      "outputs": [
        {
          "internalType": "uint256",
          "name": "",
          "type": "uint256"
        }
      ],
      "payable": false,
      "stateMutability": "view",
      "type": "function"
    },
    {
      "constant": true,
      "inputs": [],
      "name": "propertySaleCount",
      "outputs": [
        {
          "internalType": "uint256",
          "name": "",
          "type": "uint256"
        }
      ],
      "payable": false,
      "stateMutability": "view",
      "type": "function"
    },
    {
      "constant": true,
      "inputs": [
        {
          "internalType": "uint256",
          "name": "",
          "type": "uint256"
        }
      ],
      "name": "propertySales",
      "outputs": [
        {
          "internalType": "uint256",
          "name": "id",
          "type": "uint256"
        },
        {
          "internalType": "uint256",
          "name": "propertyId",
          "type": "uint256"
        },
        {
          "internalType": "string",
          "name": "propertyName",
          "type": "string"
        },
        {
          "internalType": "string",
          "name": "fromOwner",
          "type": "string"
        },
        {
          "internalType": "string",
          "name": "toOwner",
          "type": "string"
        },
        {
          "internalType": "uint256",
          "name": "uplift_value",
          "type": "uint256"
        },
        {
          "internalType": "uint256",
          "name": "uplift_cont_rate",
          "type": "uint256"
        }
      ],
      "payable": false,
      "stateMutability": "view",
      "type": "function"
    },
    {
      "constant": false,
      "inputs": [
        {
          "internalType": "string",
          "name": "_name",
          "type": "string"
        },
        {
          "internalType": "string",
          "name": "_type",
          "type": "string"
        },
        {
          "internalType": "uint256",
          "name": "_budget",
          "type": "uint256"
        }
      ],
      "name": "addMember",
      "outputs": [],
      "payable": false,
      "stateMutability": "nonpayable",
      "type": "function"
    },
    {
      "constant": true,
      "inputs": [
        {
          "internalType": "uint256",
          "name": "_buyerId",
          "type": "uint256"
        }
      ],
      "name": "getBuyer",
      "outputs": [
        {
          "internalType": "string",
          "name": "",
          "type": "string"
        }
      ],
      "payable": false,
      "stateMutability": "view",
      "type": "function"
    },
    {
      "constant": true,
      "inputs": [
        {
          "internalType": "uint256",
          "name": "_ownerId",
          "type": "uint256"
        }
      ],
      "name": "getOwner",
      "outputs": [
        {
          "internalType": "string",
          "name": "",
          "type": "string"
        }
      ],
      "payable": false,
      "stateMutability": "view",
      "type": "function"
    },
    {
      "constant": false,
      "inputs": [
        {
          "internalType": "string",
          "name": "_name",
          "type": "string"
        },
        {
          "internalType": "string",
          "name": "_location",
          "type": "string"
        },
        {
          "internalType": "uint256",
          "name": "_ownerId",
          "type": "uint256"
        },
        {
          "internalType": "uint256",
          "name": "_registered_valuation",
          "type": "uint256"
        },
        {
          "internalType": "uint256",
          "name": "_sell_value",
          "type": "uint256"
        },
        {
          "internalType": "uint256",
          "name": "_uplift_percentage",
          "type": "uint256"
        },
        {
          "internalType": "string",
          "name": "_registered_date",
          "type": "string"
        }
      ],
      "name": "addProperty",
      "outputs": [],
      "payable": false,
      "stateMutability": "nonpayable",
      "type": "function"
    },
    {
      "constant": false,
      "inputs": [
        {
          "internalType": "uint256",
          "name": "_propertyId",
          "type": "uint256"
        },
        {
          "internalType": "uint256",
          "name": "_buyerId",
          "type": "uint256"
        },
        {
          "internalType": "uint256",
          "name": "_uplift_value",
          "type": "uint256"
        },
        {
          "internalType": "uint256",
          "name": "_uplift_cont_rate",
          "type": "uint256"
        }
      ],
      "name": "createSaleTransaction",
      "outputs": [],
      "payable": false,
      "stateMutability": "nonpayable",
      "type": "function"
    }
  ],
  "bytecode": "0x608060405260006002556000600355600060065560006008556000600a553480156200002a57600080fd5b506040518060400160405280600d81526020017f536d61727420436f6d6d6f6e730000000000000000000000000000000000000081525060009080519060200190620000789291906200007f565b506200012e565b828054600181600116156101000203166002900490600052602060002090601f016020900481019282601f10620000c257805160ff1916838001178555620000f3565b82800160010185558215620000f3579182015b82811115620000f2578251825591602001919060010190620000d5565b5b50905062000102919062000106565b5090565b6200012b91905b80821115620001275760008160009055506001016200010d565b5090565b90565b612751806200013e6000396000f3fe608060405234801561001057600080fd5b506004361061010b5760003560e01c806368d6312d116100a2578063c361a33511610071578063c361a33514610ad2578063c41a360a14610af0578063dc0d3dff14610b97578063dd69937214610c45578063f7b1080814610c635761010b565b806368d6312d1461070357806374f53f7514610857578063993b6096146108a35780639e0cea0514610ab45761010b565b80631e7a7dd3116100de5780631e7a7dd3146103475780634c66c749146104e25780635bf608b81461063e57806360d7a37e146106e55761010b565b8063025e7c271461011057806306fdde03146102645780630db02622146102e757806313b8ad3114610305575b600080fd5b61013c6004803603602081101561012657600080fd5b8101908080359060200190929190505050610e75565b6040518086815260200180602001806020018573ffffffffffffffffffffffffffffffffffffffff1673ffffffffffffffffffffffffffffffffffffffff168152602001848152602001838103835287818151815260200191508051906020019080838360005b838110156101be5780820151818401526020810190506101a3565b50505050905090810190601f1680156101eb5780820380516001836020036101000a031916815260200191505b50838103825286818151815260200191508051906020019080838360005b83811015610224578082015181840152602081019050610209565b50505050905090810190601f1680156102515780820380516001836020036101000a031916815260200191505b5097505050505050505060405180910390f35b61026c610ffb565b6040518080602001828103825283818151815260200191508051906020019080838360005b838110156102ac578082015181840152602081019050610291565b50505050905090810190601f1680156102d95780820380516001836020036101000a031916815260200191505b509250505060405180910390f35b6102ef611099565b6040518082815260200191505060405180910390f35b6103316004803603602081101561031b57600080fd5b810190808035906020019092919050505061109f565b6040518082815260200191505060405180910390f35b6103736004803603602081101561035d57600080fd5b81019080803590602001909291905050506110c0565b60405180888152602001878152602001806020018060200180602001868152602001858152602001848103845289818151815260200191508051906020019080838360005b838110156103d35780820151818401526020810190506103b8565b50505050905090810190601f1680156104005780820380516001836020036101000a031916815260200191505b50848103835288818151815260200191508051906020019080838360005b8381101561043957808201518184015260208101905061041e565b50505050905090810190601f1680156104665780820380516001836020036101000a031916815260200191505b50848103825287818151815260200191508051906020019080838360005b8381101561049f578082015181840152602081019050610484565b50505050905090810190601f1680156104cc5780820380516001836020036101000a031916815260200191505b509a505050505050505050505060405180910390f35b61063c600480360360608110156104f857600080fd5b810190808035906020019064010000000081111561051557600080fd5b82018360208201111561052757600080fd5b8035906020019184600183028401116401000000008311171561054957600080fd5b91908080601f016020809104026020016040519081016040528093929190818152602001838380828437600081840152601f19601f820116905080830192505050505050509192919290803590602001906401000000008111156105ac57600080fd5b8201836020820111156105be57600080fd5b803590602001918460018302840111640100000000831117156105e057600080fd5b91908080601f016020809104026020016040519081016040528093929190818152602001838380828437600081840152601f19601f820116905080830192505050505050509192919290803590602001909291905050506112ca565b005b61066a6004803603602081101561065457600080fd5b8101908080359060200190929190505050611694565b6040518080602001828103825283818151815260200191508051906020019080838360005b838110156106aa57808201518184015260208101905061068f565b50505050905090810190601f1680156106d75780820380516001836020036101000a031916815260200191505b509250505060405180910390f35b6106ed61174c565b6040518082815260200191505060405180910390f35b61072f6004803603602081101561071957600080fd5b8101908080359060200190929190505050611752565b6040518086815260200180602001806020018573ffffffffffffffffffffffffffffffffffffffff1673ffffffffffffffffffffffffffffffffffffffff168152602001848152602001838103835287818151815260200191508051906020019080838360005b838110156107b1578082015181840152602081019050610796565b50505050905090810190601f1680156107de5780820380516001836020036101000a031916815260200191505b50838103825286818151815260200191508051906020019080838360005b838110156108175780820151818401526020810190506107fc565b50505050905090810190601f1680156108445780820380516001836020036101000a031916815260200191505b5097505050505050505060405180910390f35b6108a16004803603608081101561086d57600080fd5b81019080803590602001909291908035906020019092919080359060200190929190803590602001909291905050506118d8565b005b610ab2600480360360e08110156108b957600080fd5b81019080803590602001906401000000008111156108d657600080fd5b8201836020820111156108e857600080fd5b8035906020019184600183028401116401000000008311171561090a57600080fd5b91908080601f016020809104026020016040519081016040528093929190818152602001838380828437600081840152601f19601f8201169050808301925050505050505091929192908035906020019064010000000081111561096d57600080fd5b82018360208201111561097f57600080fd5b803590602001918460018302840111640100000000831117156109a157600080fd5b91908080601f016020809104026020016040519081016040528093929190818152602001838380828437600081840152601f19601f8201169050808301925050505050505091929192908035906020019092919080359060200190929190803590602001909291908035906020019092919080359060200190640100000000811115610a2c57600080fd5b820183602082011115610a3e57600080fd5b80359060200191846001830284011164010000000083111715610a6057600080fd5b91908080601f016020809104026020016040519081016040528093929190818152602001838380828437600081840152601f19601f820116905080830192505050505050509192919290505050611e25565b005b610abc6121a3565b6040518082815260200191505060405180910390f35b610ada6121a9565b6040518082815260200191505060405180910390f35b610b1c60048036036020811015610b0657600080fd5b81019080803590602001909291905050506121af565b6040518080602001828103825283818151815260200191508051906020019080838360005b83811015610b5c578082015181840152602081019050610b41565b50505050905090810190601f168015610b895780820380516001836020036101000a031916815260200191505b509250505060405180910390f35b610bc360048036036020811015610bad57600080fd5b8101908080359060200190929190505050612267565b6040518080602001838152602001828103825284818151815260200191508051906020019080838360005b83811015610c09578082015181840152602081019050610bee565b50505050905090810190601f168015610c365780820380516001836020036101000a031916815260200191505b50935050505060405180910390f35b610c4d612323565b6040518082815260200191505060405180910390f35b610c8f60048036036020811015610c7957600080fd5b8101908080359060200190929190505050612329565b604051808a8152602001806020018060200180602001898152602001888152602001878152602001861515151581526020018060200185810385528d818151815260200191508051906020019080838360005b83811015610cfd578082015181840152602081019050610ce2565b50505050905090810190601f168015610d2a5780820380516001836020036101000a031916815260200191505b5085810384528c818151815260200191508051906020019080838360005b83811015610d63578082015181840152602081019050610d48565b50505050905090810190601f168015610d905780820380516001836020036101000a031916815260200191505b5085810383528b818151815260200191508051906020019080838360005b83811015610dc9578082015181840152602081019050610dae565b50505050905090810190601f168015610df65780820380516001836020036101000a031916815260200191505b50858103825286818151815260200191508051906020019080838360005b83811015610e2f578082015181840152602081019050610e14565b50505050905090810190601f168015610e5c5780820380516001836020036101000a031916815260200191505b509d505050505050505050505050505060405180910390f35b6005602052806000526040600020600091509050806000015490806001018054600181600116156101000203166002900480601f016020809104026020016040519081016040528092919081815260200182805460018160011615610100020316600290048015610f275780601f10610efc57610100808354040283529160200191610f27565b820191906000526020600020905b815481529060010190602001808311610f0a57829003601f168201915b505050505090806002018054600181600116156101000203166002900480601f016020809104026020016040519081016040528092919081815260200182805460018160011615610100020316600290048015610fc55780601f10610f9a57610100808354040283529160200191610fc5565b820191906000526020600020905b815481529060010190602001808311610fa857829003601f168201915b5050505050908060030160009054906101000a900473ffffffffffffffffffffffffffffffffffffffff16908060040154905085565b60008054600181600116156101000203166002900480601f0160208091040260200160405190810160405280929190818152602001828054600181600116156101000203166002900480156110915780601f1061106657610100808354040283529160200191611091565b820191906000526020600020905b81548152906001019060200180831161107457829003601f168201915b505050505081565b60025481565b600181815481106110ac57fe5b906000526020600020016000915090505481565b600b602052806000526040600020600091509050806000015490806001015490806002018054600181600116156101000203166002900480601f0160208091040260200160405190810160405280929190818152602001828054600181600116156101000203166002900480156111785780601f1061114d57610100808354040283529160200191611178565b820191906000526020600020905b81548152906001019060200180831161115b57829003601f168201915b505050505090806003018054600181600116156101000203166002900480601f0160208091040260200160405190810160405280929190818152602001828054600181600116156101000203166002900480156112165780601f106111eb57610100808354040283529160200191611216565b820191906000526020600020905b8154815290600101906020018083116111f957829003601f168201915b505050505090806004018054600181600116156101000203166002900480601f0160208091040260200160405190810160405280929190818152602001828054600181600116156101000203166002900480156112b45780601f10611289576101008083540402835291602001916112b4565b820191906000526020600020905b81548152906001019060200180831161129757829003601f168201915b5050505050908060050154908060060154905087565b60008351116112d857600080fd5b60008251116112e657600080fd5b600081116112f357600080fd5b600060405160200180807f6275796572000000000000000000000000000000000000000000000000000000815250600501905060405160208183030381529060405280519060200120836040516020018082805190602001908083835b602083106113735780518252602082019150602081019050602083039250611350565b6001836020036101000a0380198251168184511680821785525050505050509050019150506040516020818303038152906040528051906020012014156114c3576003600081548092919060010191905055506113ce6125e4565b6040518060a0016040528060035481526020018681526020018581526020018373ffffffffffffffffffffffffffffffffffffffff1681526020018481525090508060046000600354815260200190815260200160002060008201518160000155602082015181600101908051906020019061144b929190612629565b506040820151816002019080519060200190611468929190612629565b5060608201518160030160006101000a81548173ffffffffffffffffffffffffffffffffffffffff021916908373ffffffffffffffffffffffffffffffffffffffff160217905550608082015181600401559050505061168e565b60405160200180807f6f776e6572000000000000000000000000000000000000000000000000000000815250600501905060405160208183030381529060405280519060200120836040516020018082805190602001908083835b60208310611541578051825260208201915060208101905060208303925061151e565b6001836020036101000a03801982511681845116808217855250505050505090500191505060405160208183030381529060405280519060200120141561168d5760026000815480929190600101919050555061159c6125e4565b6040518060a0016040528060025481526020018681526020018581526020018373ffffffffffffffffffffffffffffffffffffffff16815260200184815250905080600560006002548152602001908152602001600020600082015181600001556020820151816001019080519060200190611619929190612629565b506040820151816002019080519060200190611636929190612629565b5060608201518160030160006101000a81548173ffffffffffffffffffffffffffffffffffffffff021916908373ffffffffffffffffffffffffffffffffffffffff16021790555060808201518160040155905050505b5b50505050565b6060600460008381526020019081526020016000206001018054600181600116156101000203166002900480601f0160208091040260200160405190810160405280929190818152602001828054600181600116156101000203166002900480156117405780601f1061171557610100808354040283529160200191611740565b820191906000526020600020905b81548152906001019060200180831161172357829003601f168201915b50505050509050919050565b60085481565b6004602052806000526040600020600091509050806000015490806001018054600181600116156101000203166002900480601f0160208091040260200160405190810160405280929190818152602001828054600181600116156101000203166002900480156118045780601f106117d957610100808354040283529160200191611804565b820191906000526020600020905b8154815290600101906020018083116117e757829003601f168201915b505050505090806002018054600181600116156101000203166002900480601f0160208091040260200160405190810160405280929190818152602001828054600181600116156101000203166002900480156118a25780601f10611877576101008083540402835291602001916118a2565b820191906000526020600020905b81548152906001019060200180831161188557829003601f168201915b5050505050908060030160009054906101000a900473ffffffffffffffffffffffffffffffffffffffff16908060040154905085565b600082116118e557600080fd5b600081116118f257600080fd5b60606118fd84611694565b90506119076126a9565b600760008781526020019081526020016000206040518061012001604052908160008201548152602001600182018054600181600116156101000203166002900480601f0160208091040260200160405190810160405280929190818152602001828054600181600116156101000203166002900480156119c95780601f1061199e576101008083540402835291602001916119c9565b820191906000526020600020905b8154815290600101906020018083116119ac57829003601f168201915b50505050508152602001600282018054600181600116156101000203166002900480601f016020809104026020016040519081016040528092919081815260200182805460018160011615610100020316600290048015611a6b5780601f10611a4057610100808354040283529160200191611a6b565b820191906000526020600020905b815481529060010190602001808311611a4e57829003601f168201915b50505050508152602001600382018054600181600116156101000203166002900480601f016020809104026020016040519081016040528092919081815260200182805460018160011615610100020316600290048015611b0d5780601f10611ae257610100808354040283529160200191611b0d565b820191906000526020600020905b815481529060010190602001808311611af057829003601f168201915b505050505081526020016004820154815260200160058201548152602001600682015481526020016007820160009054906101000a900460ff16151515158152602001600882018054600181600116156101000203166002900480601f016020809104026020016040519081016040528092919081815260200182805460018160011615610100020316600290048015611be85780601f10611bbd57610100808354040283529160200191611be8565b820191906000526020600020905b815481529060010190602001808311611bcb57829003601f168201915b505050505081525050905060608160600151905082826060018190525060018260e0019015159081151581525050600a600081548092919060010191905055506040518060e00160405280600a548152602001888152602001836020015181526020018281526020018360600151815260200186815260200185815250600b6000600a54815260200190815260200160002060008201518160000155602082015181600101556040820151816002019080519060200190611caa929190612629565b506060820151816003019080519060200190611cc7929190612629565b506080820151816004019080519060200190611ce4929190612629565b5060a0820151816005015560c082015181600601559050506008600081548092919060010191905055506040518060400160405280828152602001868152506009600060085481526020019081526020016000206000820151816000019080519060200190611d54929190612629565b50602082015181600101559050507fff9c9d90cee13a5021c61e4721b5d7bef20c4c0455cd4e5deca95fad36274ec8600a54836020015187876040518085815260200180602001848152602001838152602001828103825285818151815260200191508051906020019080838360005b83811015611ddf578082015181840152602081019050611dc4565b50505050905090810190601f168015611e0c5780820380516001836020036101000a031916815260200191505b509550505050505060405180910390a150505050505050565b6000875111611e3357600080fd5b6000865111611e4157600080fd5b60008411611e4e57600080fd5b60008211611e5b57600080fd5b6060611e66866121af565b9050600660008154809291906001019190505550604051806101200160405280600654815260200189815260200188815260200182815260200186815260200185815260200184815260200160001515815260200183815250600760006006548152602001908152602001600020600082015181600001556020820151816001019080519060200190611efa929190612629565b506040820151816002019080519060200190611f17929190612629565b506060820151816003019080519060200190611f34929190612629565b506080820151816004015560a0820151816005015560c0820151816006015560e08201518160070160006101000a81548160ff021916908315150217905550610100820151816008019080519060200190611f90929190612629565b509050507fc976af3d8d8069f798fb23a2667e0d6a2f0c1a6716c7fc0a76817265b28beb9d60065489898489898989604051808981526020018060200180602001806020018881526020018781526020018681526020018060200185810385528c818151815260200191508051906020019080838360005b83811015612023578082015181840152602081019050612008565b50505050905090810190601f1680156120505780820380516001836020036101000a031916815260200191505b5085810384528b818151815260200191508051906020019080838360005b8381101561208957808201518184015260208101905061206e565b50505050905090810190601f1680156120b65780820380516001836020036101000a031916815260200191505b5085810383528a818151815260200191508051906020019080838360005b838110156120ef5780820151818401526020810190506120d4565b50505050905090810190601f16801561211c5780820380516001836020036101000a031916815260200191505b50858103825286818151815260200191508051906020019080838360005b8381101561215557808201518184015260208101905061213a565b50505050905090810190601f1680156121825780820380516001836020036101000a031916815260200191505b509c5050505050505050505050505060405180910390a15050505050505050565b60035481565b60065481565b6060600560008381526020019081526020016000206001018054600181600116156101000203166002900480601f01602080910402602001604051908101604052809291908181526020018280546001816001161561010002031660029004801561225b5780601f106122305761010080835404028352916020019161225b565b820191906000526020600020905b81548152906001019060200180831161223e57829003601f168201915b50505050509050919050565b6009602052806000526040600020600091509050806000018054600181600116156101000203166002900480601f0160208091040260200160405190810160405280929190818152602001828054600181600116156101000203166002900480156123135780601f106122e857610100808354040283529160200191612313565b820191906000526020600020905b8154815290600101906020018083116122f657829003601f168201915b5050505050908060010154905082565b600a5481565b6007602052806000526040600020600091509050806000015490806001018054600181600116156101000203166002900480601f0160208091040260200160405190810160405280929190818152602001828054600181600116156101000203166002900480156123db5780601f106123b0576101008083540402835291602001916123db565b820191906000526020600020905b8154815290600101906020018083116123be57829003601f168201915b505050505090806002018054600181600116156101000203166002900480601f0160208091040260200160405190810160405280929190818152602001828054600181600116156101000203166002900480156124795780601f1061244e57610100808354040283529160200191612479565b820191906000526020600020905b81548152906001019060200180831161245c57829003601f168201915b505050505090806003018054600181600116156101000203166002900480601f0160208091040260200160405190810160405280929190818152602001828054600181600116156101000203166002900480156125175780601f106124ec57610100808354040283529160200191612517565b820191906000526020600020905b8154815290600101906020018083116124fa57829003601f168201915b5050505050908060040154908060050154908060060154908060070160009054906101000a900460ff1690806008018054600181600116156101000203166002900480601f0160208091040260200160405190810160405280929190818152602001828054600181600116156101000203166002900480156125da5780601f106125af576101008083540402835291602001916125da565b820191906000526020600020905b8154815290600101906020018083116125bd57829003601f168201915b5050505050905089565b6040518060a00160405280600081526020016060815260200160608152602001600073ffffffffffffffffffffffffffffffffffffffff168152602001600081525090565b828054600181600116156101000203166002900490600052602060002090601f016020900481019282601f1061266a57805160ff1916838001178555612698565b82800160010185558215612698579182015b8281111561269757825182559160200191906001019061267c565b5b5090506126a591906126f7565b5090565b60405180610120016040528060008152602001606081526020016060815260200160608152602001600081526020016000815260200160008152602001600015158152602001606081525090565b61271991905b808211156127155760008160009055506001016126fd565b5090565b9056fea265627a7a72315820f8f738e3178d32a4f766aec0fee35e4b4c93bb10a0cf478d310d79120224c51764736f6c634300050c0032",
  "source": "pragma solidity ^0.5.0;\n\ncontract SmartCommons {\n    string public name;\n     \n    struct Member {\n        uint id;\n        string name;\n        string memberType;\n        address memberAddress;\n        uint budget;\n    }\n\n    uint[] public membersList;\n    uint public ownerCount = 0;\n    uint public buyerCount = 0;\n    mapping(uint => Member) public buyersOfProperty;\n    mapping(uint => Member) public owners;\n\n    function addMember(string memory _name, string memory _type, uint _budget) public {\n        require(bytes(_name).length > 0);\n        require(bytes(_type).length > 0);\n        require(_budget > 0);\n\n        address newMemberAddress;\n\n        if (keccak256(abi.encodePacked(_type)) == keccak256(abi.encodePacked('buyer'))) {\n            buyerCount++;\n            Member memory buyer = Member(buyerCount, _name, _type, newMemberAddress, _budget);\n            buyersOfProperty[buyerCount] = buyer;\n\n        } else if (keccak256(abi.encodePacked(_type)) == keccak256(abi.encodePacked('owner'))) {\n            ownerCount++;\n            Member memory owner = Member(ownerCount, _name, _type, newMemberAddress, _budget);\n            owners[ownerCount] = owner;\n        }     \n    }\n\n\n    function getBuyer(uint _buyerId) view public returns (string memory) {\n        return (buyersOfProperty[_buyerId].name);\n    }\n\n    function getOwner(uint _ownerId) view public returns (string memory) {\n        return (owners[_ownerId].name);\n    }\n\n    struct Property {\n        uint id;\n        string name;\n        string location;\n        string owner;\n        uint registered_valuation;\n        uint sell_value;\n        uint uplift_percentage;\n        bool purchased;\n        string registered_date;\n    }\n\n    uint public propertyCount = 0;\n    mapping(uint => Property) public properties;\n\n    event PropertyCreated (\n        uint id,\n        string name,\n        string location,\n        string owner,\n        uint registered_valuation,\n        uint sell_value,\n        uint uplift_percentage,\n        string registered_date\n    );\n\n    function addProperty(string memory _name, string memory _location, uint _ownerId, uint _registered_valuation, uint _sell_value, uint _uplift_percentage, string memory _registered_date) public {\n        require(bytes(_name).length > 0);\n        require(bytes(_location).length > 0);\n        require(_registered_valuation > 0);\n        require(_uplift_percentage > 0);\n        \n        string memory owner = getOwner(_ownerId);\n        propertyCount++;\n        properties[propertyCount] = Property(propertyCount, _name, _location, owner, _registered_valuation, _sell_value, _uplift_percentage, false, _registered_date);\n        emit PropertyCreated(propertyCount, _name, _location, owner, _registered_valuation, _sell_value, _uplift_percentage, _registered_date);\n    }\n\n    struct InvestmentFund {\n        string funder;\n        uint total_amount;\n    }\n    uint public nrofInvestments = 0;\n    mapping(uint => InvestmentFund) public funders;\n\n\n    struct PropertySale {\n        uint id;\n        uint propertyId;\n        string propertyName;\n        string fromOwner;\n        string toOwner;\n        uint uplift_value;\n        uint uplift_cont_rate;\n    }\n\n    uint public propertySaleCount = 0;\n    mapping(uint => PropertySale) public propertySales;\n\n    event PropertySold(\n        uint id,\n        string propertyName,\n        uint uplift_value,\n        uint uplift_cont_rate\n    );\n\n    function createSaleTransaction(uint _propertyId, uint _buyerId, uint _uplift_value, uint _uplift_cont_rate) public {\n        require(_uplift_value > 0);\n        require(_uplift_cont_rate > 0);\n        \n        string memory newOwner = getBuyer(_buyerId);\n        Property memory _property = properties[_propertyId];\n        string memory currentOwner = _property.owner;\n        _property.owner = newOwner;\n        _property.purchased = true;\n\n        propertySaleCount ++;\n        propertySales[propertySaleCount] = PropertySale(propertySaleCount, _propertyId, _property.name, currentOwner, _property.owner, _uplift_value, _uplift_cont_rate);\n        nrofInvestments ++;\n        funders[nrofInvestments] = InvestmentFund(currentOwner, _uplift_value);\n        emit PropertySold(propertySaleCount, _property.name, _uplift_value, _uplift_cont_rate);\n    }\n\n    constructor() public {\n        name = \"Smart Commons\";\n    }\n}",
  "sourcePath": "/Users/ozzibroccoli/dev/lucidminds/smart-commons/src/contracts/SmartCommons.sol",
  "compiler": {
    "name": "solc",
    "version": "0.5.12+commit.7709ece9.Emscripten.clang"
  },
  "schemaVersion": "3.0.19",
  "updatedAt": "2020-01-23T16:41:35.991Z",
  "networkType": "ethereum",
  "devdoc": {
    "methods": {}
  },
  "userdoc": {
    "methods": {}
  }
}