{
  "contractName": "SmartCommons",
  "abi": [
    {
      "inputs": [],
      "payable": false,
      "stateMutability": "nonpayable",
      "type": "constructor"
    },
    {
      "anonymous": false,
      "inputs": [
        {
          "indexed": false,
          "internalType": "uint256",
          "name": "id",
          "type": "uint256"
        },
        {
          "indexed": false,
          "internalType": "string",
          "name": "name",
          "type": "string"
        },
        {
          "indexed": false,
          "internalType": "string",
          "name": "location",
          "type": "string"
        },
        {
          "indexed": false,
          "internalType": "string",
          "name": "owner",
          "type": "string"
        },
        {
          "indexed": false,
          "internalType": "uint256",
          "name": "registered_valuation",
          "type": "uint256"
        },
        {
          "indexed": false,
          "internalType": "uint256",
          "name": "sell_value",
          "type": "uint256"
        },
        {
          "indexed": false,
          "internalType": "uint256",
          "name": "uplift_percentage",
          "type": "uint256"
        },
        {
          "indexed": false,
          "internalType": "string",
          "name": "registered_date",
          "type": "string"
        }
      ],
      "name": "PropertyCreated",
      "type": "event"
    },
    {
      "anonymous": false,
      "inputs": [
        {
          "indexed": false,
          "internalType": "uint256",
          "name": "id",
          "type": "uint256"
        },
        {
          "indexed": false,
          "internalType": "string",
          "name": "propertyName",
          "type": "string"
        },
        {
          "indexed": false,
          "internalType": "uint256",
          "name": "uplift_value",
          "type": "uint256"
        },
        {
          "indexed": false,
          "internalType": "uint256",
          "name": "uplift_cont_rate",
          "type": "uint256"
        }
      ],
      "name": "PropertySold",
      "type": "event"
    },
    {
      "constant": true,
      "inputs": [],
      "name": "buyerCount",
      "outputs": [
        {
          "internalType": "uint256",
          "name": "",
          "type": "uint256"
        }
      ],
      "payable": false,
      "stateMutability": "view",
      "type": "function"
    },
    {
      "constant": true,
      "inputs": [
        {
          "internalType": "uint256",
          "name": "",
          "type": "uint256"
        }
      ],
      "name": "buyersOfProperty",
      "outputs": [
        {
          "internalType": "uint256",
          "name": "id",
          "type": "uint256"
        },
        {
          "internalType": "string",
          "name": "name",
          "type": "string"
        },
        {
          "internalType": "string",
          "name": "memberType",
          "type": "string"
        },
        {
          "internalType": "address",
          "name": "memberAddress",
          "type": "address"
        },
        {
          "internalType": "uint256",
          "name": "budget",
          "type": "uint256"
        }
      ],
      "payable": false,
      "stateMutability": "view",
      "type": "function"
    },
    {
      "constant": true,
      "inputs": [
        {
          "internalType": "uint256",
          "name": "",
          "type": "uint256"
        }
      ],
      "name": "funders",
      "outputs": [
        {
          "internalType": "string",
          "name": "funder",
          "type": "string"
        },
        {
          "internalType": "uint256",
          "name": "total_amount",
          "type": "uint256"
        }
      ],
      "payable": false,
      "stateMutability": "view",
      "type": "function"
    },
    {
      "constant": true,
      "inputs": [
        {
          "internalType": "uint256",
          "name": "",
          "type": "uint256"
        }
      ],
      "name": "membersList",
      "outputs": [
        {
          "internalType": "uint256",
          "name": "",
          "type": "uint256"
        }
      ],
      "payable": false,
      "stateMutability": "view",
      "type": "function"
    },
    {
      "constant": true,
      "inputs": [],
      "name": "name",
      "outputs": [
        {
          "internalType": "string",
          "name": "",
          "type": "string"
        }
      ],
      "payable": false,
      "stateMutability": "view",
      "type": "function"
    },
    {
      "constant": true,
      "inputs": [],
      "name": "nrofInvestments",
      "outputs": [
        {
          "internalType": "uint256",
          "name": "",
          "type": "uint256"
        }
      ],
      "payable": false,
      "stateMutability": "view",
      "type": "function"
    },
    {
      "constant": true,
      "inputs": [],
      "name": "ownerCount",
      "outputs": [
        {
          "internalType": "uint256",
          "name": "",
          "type": "uint256"
        }
      ],
      "payable": false,
      "stateMutability": "view",
      "type": "function"
    },
    {
      "constant": true,
      "inputs": [
        {
          "internalType": "uint256",
          "name": "",
          "type": "uint256"
        }
      ],
      "name": "owners",
      "outputs": [
        {
          "internalType": "uint256",
          "name": "id",
          "type": "uint256"
        },
        {
          "internalType": "string",
          "name": "name",
          "type": "string"
        },
        {
          "internalType": "string",
          "name": "memberType",
          "type": "string"
        },
        {
          "internalType": "address",
          "name": "memberAddress",
          "type": "address"
        },
        {
          "internalType": "uint256",
          "name": "budget",
          "type": "uint256"
        }
      ],
      "payable": false,
      "stateMutability": "view",
      "type": "function"
    },
    {
      "constant": true,
      "inputs": [
        {
          "internalType": "uint256",
          "name": "",
          "type": "uint256"
        }
      ],
      "name": "properties",
      "outputs": [
        {
          "internalType": "uint256",
          "name": "id",
          "type": "uint256"
        },
        {
          "internalType": "string",
          "name": "name",
          "type": "string"
        },
        {
          "internalType": "string",
          "name": "location",
          "type": "string"
        },
        {
          "internalType": "string",
          "name": "owner",
          "type": "string"
        },
        {
          "internalType": "uint256",
          "name": "registered_valuation",
          "type": "uint256"
        },
        {
          "internalType": "uint256",
          "name": "sell_value",
          "type": "uint256"
        },
        {
          "internalType": "uint256",
          "name": "uplift_percentage",
          "type": "uint256"
        },
        {
          "internalType": "bool",
          "name": "purchased",
          "type": "bool"
        },
        {
          "internalType": "string",
          "name": "registered_date",
          "type": "string"
        }
      ],
      "payable": false,
      "stateMutability": "view",
      "type": "function"
    },
    {
      "constant": true,
      "inputs": [],
      "name": "propertyCount",
      "outputs": [
        {
          "internalType": "uint256",
          "name": "",
          "type": "uint256"
        }
      ],
      "payable": false,
      "stateMutability": "view",
      "type": "function"
    },
    {
      "constant": true,
      "inputs": [],
      "name": "propertySaleCount",
      "outputs": [
        {
          "internalType": "uint256",
          "name": "",
          "type": "uint256"
        }
      ],
      "payable": false,
      "stateMutability": "view",
      "type": "function"
    },
    {
      "constant": true,
      "inputs": [
        {
          "internalType": "uint256",
          "name": "",
          "type": "uint256"
        }
      ],
      "name": "propertySales",
      "outputs": [
        {
          "internalType": "uint256",
          "name": "id",
          "type": "uint256"
        },
        {
          "internalType": "uint256",
          "name": "propertyId",
          "type": "uint256"
        },
        {
          "internalType": "string",
          "name": "propertyName",
          "type": "string"
        },
        {
          "internalType": "string",
          "name": "fromOwner",
          "type": "string"
        },
        {
          "internalType": "string",
          "name": "toOwner",
          "type": "string"
        },
        {
          "internalType": "string",
          "name": "algoHash",
          "type": "string"
        },
        {
          "internalType": "uint256",
          "name": "uplift_value",
          "type": "uint256"
        },
        {
          "internalType": "uint256",
          "name": "uplift_cont_rate",
          "type": "uint256"
        }
      ],
      "payable": false,
      "stateMutability": "view",
      "type": "function"
    },
    {
      "constant": false,
      "inputs": [
        {
          "internalType": "string",
          "name": "_name",
          "type": "string"
        },
        {
          "internalType": "string",
          "name": "_type",
          "type": "string"
        },
        {
          "internalType": "uint256",
          "name": "_budget",
          "type": "uint256"
        }
      ],
      "name": "addMember",
      "outputs": [],
      "payable": false,
      "stateMutability": "nonpayable",
      "type": "function"
    },
    {
      "constant": true,
      "inputs": [
        {
          "internalType": "uint256",
          "name": "_buyerId",
          "type": "uint256"
        }
      ],
      "name": "getBuyer",
      "outputs": [
        {
          "internalType": "string",
          "name": "",
          "type": "string"
        }
      ],
      "payable": false,
      "stateMutability": "view",
      "type": "function"
    },
    {
      "constant": true,
      "inputs": [
        {
          "internalType": "uint256",
          "name": "_ownerId",
          "type": "uint256"
        }
      ],
      "name": "getOwner",
      "outputs": [
        {
          "internalType": "string",
          "name": "",
          "type": "string"
        }
      ],
      "payable": false,
      "stateMutability": "view",
      "type": "function"
    },
    {
      "constant": false,
      "inputs": [
        {
          "internalType": "string",
          "name": "_name",
          "type": "string"
        },
        {
          "internalType": "string",
          "name": "_location",
          "type": "string"
        },
        {
          "internalType": "uint256",
          "name": "_ownerId",
          "type": "uint256"
        },
        {
          "internalType": "uint256",
          "name": "_registered_valuation",
          "type": "uint256"
        },
        {
          "internalType": "uint256",
          "name": "_sell_value",
          "type": "uint256"
        },
        {
          "internalType": "uint256",
          "name": "_uplift_percentage",
          "type": "uint256"
        },
        {
          "internalType": "string",
          "name": "_registered_date",
          "type": "string"
        }
      ],
      "name": "addProperty",
      "outputs": [],
      "payable": false,
      "stateMutability": "nonpayable",
      "type": "function"
    },
    {
      "constant": false,
      "inputs": [
        {
          "internalType": "uint256",
          "name": "_propertyId",
          "type": "uint256"
        },
        {
          "internalType": "uint256",
          "name": "_buyerId",
          "type": "uint256"
        },
        {
          "internalType": "string",
          "name": "_algoHash",
          "type": "string"
        },
        {
          "internalType": "uint256",
          "name": "_uplift_value",
          "type": "uint256"
        },
        {
          "internalType": "uint256",
          "name": "_calculated_uplift_cont",
          "type": "uint256"
        }
      ],
      "name": "createSaleTransaction",
      "outputs": [],
      "payable": false,
      "stateMutability": "nonpayable",
      "type": "function"
    }
  ],
  "bytecode": "0x608060405260006002556000600355600060065560006008556000600a553480156200002a57600080fd5b506040518060400160405280600d81526020017f536d61727420436f6d6d6f6e730000000000000000000000000000000000000081525060009080519060200190620000789291906200007f565b506200012e565b828054600181600116156101000203166002900490600052602060002090601f016020900481019282601f10620000c257805160ff1916838001178555620000f3565b82800160010185558215620000f3579182015b82811115620000f2578251825591602001919060010190620000d5565b5b50905062000102919062000106565b5090565b6200012b91905b80821115620001275760008160009055506001016200010d565b5090565b90565b612917806200013e6000396000f3fe608060405234801561001057600080fd5b506004361061010b5760003560e01c806368d6312d116100a2578063c361a33511610071578063c361a33514610bd5578063c41a360a14610bf3578063dc0d3dff14610c9a578063dd69937214610d48578063f7b1080814610d665761010b565b806368d6312d1461076f57806388c212d2146108c3578063993b6096146109a65780639e0cea0514610bb75761010b565b80631e7a7dd3116100de5780631e7a7dd3146103475780634c66c7491461054e5780635bf608b8146106aa57806360d7a37e146107515761010b565b8063025e7c271461011057806306fdde03146102645780630db02622146102e757806313b8ad3114610305575b600080fd5b61013c6004803603602081101561012657600080fd5b8101908080359060200190929190505050610f78565b6040518086815260200180602001806020018573ffffffffffffffffffffffffffffffffffffffff1673ffffffffffffffffffffffffffffffffffffffff168152602001848152602001838103835287818151815260200191508051906020019080838360005b838110156101be5780820151818401526020810190506101a3565b50505050905090810190601f1680156101eb5780820380516001836020036101000a031916815260200191505b50838103825286818151815260200191508051906020019080838360005b83811015610224578082015181840152602081019050610209565b50505050905090810190601f1680156102515780820380516001836020036101000a031916815260200191505b5097505050505050505060405180910390f35b61026c6110fe565b6040518080602001828103825283818151815260200191508051906020019080838360005b838110156102ac578082015181840152602081019050610291565b50505050905090810190601f1680156102d95780820380516001836020036101000a031916815260200191505b509250505060405180910390f35b6102ef61119c565b6040518082815260200191505060405180910390f35b6103316004803603602081101561031b57600080fd5b81019080803590602001909291905050506111a2565b6040518082815260200191505060405180910390f35b6103736004803603602081101561035d57600080fd5b81019080803590602001909291905050506111c3565b604051808981526020018881526020018060200180602001806020018060200187815260200186815260200185810385528b818151815260200191508051906020019080838360005b838110156103d75780820151818401526020810190506103bc565b50505050905090810190601f1680156104045780820380516001836020036101000a031916815260200191505b5085810384528a818151815260200191508051906020019080838360005b8381101561043d578082015181840152602081019050610422565b50505050905090810190601f16801561046a5780820380516001836020036101000a031916815260200191505b50858103835289818151815260200191508051906020019080838360005b838110156104a3578082015181840152602081019050610488565b50505050905090810190601f1680156104d05780820380516001836020036101000a031916815260200191505b50858103825288818151815260200191508051906020019080838360005b838110156105095780820151818401526020810190506104ee565b50505050905090810190601f1680156105365780820380516001836020036101000a031916815260200191505b509c5050505050505050505050505060405180910390f35b6106a86004803603606081101561056457600080fd5b810190808035906020019064010000000081111561058157600080fd5b82018360208201111561059357600080fd5b803590602001918460018302840111640100000000831117156105b557600080fd5b91908080601f016020809104026020016040519081016040528093929190818152602001838380828437600081840152601f19601f8201169050808301925050505050505091929192908035906020019064010000000081111561061857600080fd5b82018360208201111561062a57600080fd5b8035906020019184600183028401116401000000008311171561064c57600080fd5b91908080601f016020809104026020016040519081016040528093929190818152602001838380828437600081840152601f19601f8201169050808301925050505050505091929192908035906020019092919050505061146b565b005b6106d6600480360360208110156106c057600080fd5b8101908080359060200190929190505050611835565b6040518080602001828103825283818151815260200191508051906020019080838360005b838110156107165780820151818401526020810190506106fb565b50505050905090810190601f1680156107435780820380516001836020036101000a031916815260200191505b509250505060405180910390f35b6107596118ed565b6040518082815260200191505060405180910390f35b61079b6004803603602081101561078557600080fd5b81019080803590602001909291905050506118f3565b6040518086815260200180602001806020018573ffffffffffffffffffffffffffffffffffffffff1673ffffffffffffffffffffffffffffffffffffffff168152602001848152602001838103835287818151815260200191508051906020019080838360005b8381101561081d578082015181840152602081019050610802565b50505050905090810190601f16801561084a5780820380516001836020036101000a031916815260200191505b50838103825286818151815260200191508051906020019080838360005b83811015610883578082015181840152602081019050610868565b50505050905090810190601f1680156108b05780820380516001836020036101000a031916815260200191505b5097505050505050505060405180910390f35b6109a4600480360360a08110156108d957600080fd5b8101908080359060200190929190803590602001909291908035906020019064010000000081111561090a57600080fd5b82018360208201111561091c57600080fd5b8035906020019184600183028401116401000000008311171561093e57600080fd5b91908080601f016020809104026020016040519081016040528093929190818152602001838380828437600081840152601f19601f8201169050808301925050505050505091929192908035906020019092919080359060200190929190505050611a79565b005b610bb5600480360360e08110156109bc57600080fd5b81019080803590602001906401000000008111156109d957600080fd5b8201836020820111156109eb57600080fd5b80359060200191846001830284011164010000000083111715610a0d57600080fd5b91908080601f016020809104026020016040519081016040528093929190818152602001838380828437600081840152601f19601f82011690508083019250505050505050919291929080359060200190640100000000811115610a7057600080fd5b820183602082011115610a8257600080fd5b80359060200191846001830284011164010000000083111715610aa457600080fd5b91908080601f016020809104026020016040519081016040528093929190818152602001838380828437600081840152601f19601f8201169050808301925050505050505091929192908035906020019092919080359060200190929190803590602001909291908035906020019092919080359060200190640100000000811115610b2f57600080fd5b820183602082011115610b4157600080fd5b80359060200191846001830284011164010000000083111715610b6357600080fd5b91908080601f016020809104026020016040519081016040528093929190818152602001838380828437600081840152601f19601f820116905080830192505050505050509192919290505050611feb565b005b610bbf612369565b6040518082815260200191505060405180910390f35b610bdd61236f565b6040518082815260200191505060405180910390f35b610c1f60048036036020811015610c0957600080fd5b8101908080359060200190929190505050612375565b6040518080602001828103825283818151815260200191508051906020019080838360005b83811015610c5f578082015181840152602081019050610c44565b50505050905090810190601f168015610c8c5780820380516001836020036101000a031916815260200191505b509250505060405180910390f35b610cc660048036036020811015610cb057600080fd5b810190808035906020019092919050505061242d565b6040518080602001838152602001828103825284818151815260200191508051906020019080838360005b83811015610d0c578082015181840152602081019050610cf1565b50505050905090810190601f168015610d395780820380516001836020036101000a031916815260200191505b50935050505060405180910390f35b610d506124e9565b6040518082815260200191505060405180910390f35b610d9260048036036020811015610d7c57600080fd5b81019080803590602001909291905050506124ef565b604051808a8152602001806020018060200180602001898152602001888152602001878152602001861515151581526020018060200185810385528d818151815260200191508051906020019080838360005b83811015610e00578082015181840152602081019050610de5565b50505050905090810190601f168015610e2d5780820380516001836020036101000a031916815260200191505b5085810384528c818151815260200191508051906020019080838360005b83811015610e66578082015181840152602081019050610e4b565b50505050905090810190601f168015610e935780820380516001836020036101000a031916815260200191505b5085810383528b818151815260200191508051906020019080838360005b83811015610ecc578082015181840152602081019050610eb1565b50505050905090810190601f168015610ef95780820380516001836020036101000a031916815260200191505b50858103825286818151815260200191508051906020019080838360005b83811015610f32578082015181840152602081019050610f17565b50505050905090810190601f168015610f5f5780820380516001836020036101000a031916815260200191505b509d505050505050505050505050505060405180910390f35b6005602052806000526040600020600091509050806000015490806001018054600181600116156101000203166002900480601f01602080910402602001604051908101604052809291908181526020018280546001816001161561010002031660029004801561102a5780601f10610fff5761010080835404028352916020019161102a565b820191906000526020600020905b81548152906001019060200180831161100d57829003601f168201915b505050505090806002018054600181600116156101000203166002900480601f0160208091040260200160405190810160405280929190818152602001828054600181600116156101000203166002900480156110c85780601f1061109d576101008083540402835291602001916110c8565b820191906000526020600020905b8154815290600101906020018083116110ab57829003601f168201915b5050505050908060030160009054906101000a900473ffffffffffffffffffffffffffffffffffffffff16908060040154905085565b60008054600181600116156101000203166002900480601f0160208091040260200160405190810160405280929190818152602001828054600181600116156101000203166002900480156111945780601f1061116957610100808354040283529160200191611194565b820191906000526020600020905b81548152906001019060200180831161117757829003601f168201915b505050505081565b60025481565b600181815481106111af57fe5b906000526020600020016000915090505481565b600b602052806000526040600020600091509050806000015490806001015490806002018054600181600116156101000203166002900480601f01602080910402602001604051908101604052809291908181526020018280546001816001161561010002031660029004801561127b5780601f106112505761010080835404028352916020019161127b565b820191906000526020600020905b81548152906001019060200180831161125e57829003601f168201915b505050505090806003018054600181600116156101000203166002900480601f0160208091040260200160405190810160405280929190818152602001828054600181600116156101000203166002900480156113195780601f106112ee57610100808354040283529160200191611319565b820191906000526020600020905b8154815290600101906020018083116112fc57829003601f168201915b505050505090806004018054600181600116156101000203166002900480601f0160208091040260200160405190810160405280929190818152602001828054600181600116156101000203166002900480156113b75780601f1061138c576101008083540402835291602001916113b7565b820191906000526020600020905b81548152906001019060200180831161139a57829003601f168201915b505050505090806005018054600181600116156101000203166002900480601f0160208091040260200160405190810160405280929190818152602001828054600181600116156101000203166002900480156114555780601f1061142a57610100808354040283529160200191611455565b820191906000526020600020905b81548152906001019060200180831161143857829003601f168201915b5050505050908060060154908060070154905088565b600083511161147957600080fd5b600082511161148757600080fd5b6000811161149457600080fd5b600060405160200180807f6275796572000000000000000000000000000000000000000000000000000000815250600501905060405160208183030381529060405280519060200120836040516020018082805190602001908083835b6020831061151457805182526020820191506020810190506020830392506114f1565b6001836020036101000a0380198251168184511680821785525050505050509050019150506040516020818303038152906040528051906020012014156116645760036000815480929190600101919050555061156f6127aa565b6040518060a0016040528060035481526020018681526020018581526020018373ffffffffffffffffffffffffffffffffffffffff168152602001848152509050806004600060035481526020019081526020016000206000820151816000015560208201518160010190805190602001906115ec9291906127ef565b5060408201518160020190805190602001906116099291906127ef565b5060608201518160030160006101000a81548173ffffffffffffffffffffffffffffffffffffffff021916908373ffffffffffffffffffffffffffffffffffffffff160217905550608082015181600401559050505061182f565b60405160200180807f6f776e6572000000000000000000000000000000000000000000000000000000815250600501905060405160208183030381529060405280519060200120836040516020018082805190602001908083835b602083106116e257805182526020820191506020810190506020830392506116bf565b6001836020036101000a03801982511681845116808217855250505050505090500191505060405160208183030381529060405280519060200120141561182e5760026000815480929190600101919050555061173d6127aa565b6040518060a0016040528060025481526020018681526020018581526020018373ffffffffffffffffffffffffffffffffffffffff168152602001848152509050806005600060025481526020019081526020016000206000820151816000015560208201518160010190805190602001906117ba9291906127ef565b5060408201518160020190805190602001906117d79291906127ef565b5060608201518160030160006101000a81548173ffffffffffffffffffffffffffffffffffffffff021916908373ffffffffffffffffffffffffffffffffffffffff16021790555060808201518160040155905050505b5b50505050565b6060600460008381526020019081526020016000206001018054600181600116156101000203166002900480601f0160208091040260200160405190810160405280929190818152602001828054600181600116156101000203166002900480156118e15780601f106118b6576101008083540402835291602001916118e1565b820191906000526020600020905b8154815290600101906020018083116118c457829003601f168201915b50505050509050919050565b60085481565b6004602052806000526040600020600091509050806000015490806001018054600181600116156101000203166002900480601f0160208091040260200160405190810160405280929190818152602001828054600181600116156101000203166002900480156119a55780601f1061197a576101008083540402835291602001916119a5565b820191906000526020600020905b81548152906001019060200180831161198857829003601f168201915b505050505090806002018054600181600116156101000203166002900480601f016020809104026020016040519081016040528092919081815260200182805460018160011615610100020316600290048015611a435780601f10611a1857610100808354040283529160200191611a43565b820191906000526020600020905b815481529060010190602001808311611a2657829003601f168201915b5050505050908060030160009054906101000a900473ffffffffffffffffffffffffffffffffffffffff16908060040154905085565b60008211611a8657600080fd5b60008111611a9357600080fd5b6060611a9e85611835565b9050611aa861286f565b600760008881526020019081526020016000206040518061012001604052908160008201548152602001600182018054600181600116156101000203166002900480601f016020809104026020016040519081016040528092919081815260200182805460018160011615610100020316600290048015611b6a5780601f10611b3f57610100808354040283529160200191611b6a565b820191906000526020600020905b815481529060010190602001808311611b4d57829003601f168201915b50505050508152602001600282018054600181600116156101000203166002900480601f016020809104026020016040519081016040528092919081815260200182805460018160011615610100020316600290048015611c0c5780601f10611be157610100808354040283529160200191611c0c565b820191906000526020600020905b815481529060010190602001808311611bef57829003601f168201915b50505050508152602001600382018054600181600116156101000203166002900480601f016020809104026020016040519081016040528092919081815260200182805460018160011615610100020316600290048015611cae5780601f10611c8357610100808354040283529160200191611cae565b820191906000526020600020905b815481529060010190602001808311611c9157829003601f168201915b505050505081526020016004820154815260200160058201548152602001600682015481526020016007820160009054906101000a900460ff16151515158152602001600882018054600181600116156101000203166002900480601f016020809104026020016040519081016040528092919081815260200182805460018160011615610100020316600290048015611d895780601f10611d5e57610100808354040283529160200191611d89565b820191906000526020600020905b815481529060010190602001808311611d6c57829003601f168201915b505050505081525050905060608160600151905082826060018190525060018260e0019015159081151581525050600a60008154809291906001019190505550604051806101000160405280600a548152602001898152602001836020015181526020018281526020018360600151815260200187815260200186815260200185815250600b6000600a54815260200190815260200160002060008201518160000155602082015181600101556040820151816002019080519060200190611e529291906127ef565b506060820151816003019080519060200190611e6f9291906127ef565b506080820151816004019080519060200190611e8c9291906127ef565b5060a0820151816005019080519060200190611ea99291906127ef565b5060c0820151816006015560e082015181600701559050506008600081548092919060010191905055506040518060400160405280828152602001858152506009600060085481526020019081526020016000206000820151816000019080519060200190611f199291906127ef565b50602082015181600101559050507fff9c9d90cee13a5021c61e4721b5d7bef20c4c0455cd4e5deca95fad36274ec8600a54836020015187876040518085815260200180602001848152602001838152602001828103825285818151815260200191508051906020019080838360005b83811015611fa4578082015181840152602081019050611f89565b50505050905090810190601f168015611fd15780820380516001836020036101000a031916815260200191505b509550505050505060405180910390a15050505050505050565b6000875111611ff957600080fd5b600086511161200757600080fd5b6000841161201457600080fd5b6000821161202157600080fd5b606061202c86612375565b90506006600081548092919060010191905055506040518061012001604052806006548152602001898152602001888152602001828152602001868152602001858152602001848152602001600015158152602001838152506007600060065481526020019081526020016000206000820151816000015560208201518160010190805190602001906120c09291906127ef565b5060408201518160020190805190602001906120dd9291906127ef565b5060608201518160030190805190602001906120fa9291906127ef565b506080820151816004015560a0820151816005015560c0820151816006015560e08201518160070160006101000a81548160ff0219169083151502179055506101008201518160080190805190602001906121569291906127ef565b509050507fc976af3d8d8069f798fb23a2667e0d6a2f0c1a6716c7fc0a76817265b28beb9d60065489898489898989604051808981526020018060200180602001806020018881526020018781526020018681526020018060200185810385528c818151815260200191508051906020019080838360005b838110156121e95780820151818401526020810190506121ce565b50505050905090810190601f1680156122165780820380516001836020036101000a031916815260200191505b5085810384528b818151815260200191508051906020019080838360005b8381101561224f578082015181840152602081019050612234565b50505050905090810190601f16801561227c5780820380516001836020036101000a031916815260200191505b5085810383528a818151815260200191508051906020019080838360005b838110156122b557808201518184015260208101905061229a565b50505050905090810190601f1680156122e25780820380516001836020036101000a031916815260200191505b50858103825286818151815260200191508051906020019080838360005b8381101561231b578082015181840152602081019050612300565b50505050905090810190601f1680156123485780820380516001836020036101000a031916815260200191505b509c5050505050505050505050505060405180910390a15050505050505050565b60035481565b60065481565b6060600560008381526020019081526020016000206001018054600181600116156101000203166002900480601f0160208091040260200160405190810160405280929190818152602001828054600181600116156101000203166002900480156124215780601f106123f657610100808354040283529160200191612421565b820191906000526020600020905b81548152906001019060200180831161240457829003601f168201915b50505050509050919050565b6009602052806000526040600020600091509050806000018054600181600116156101000203166002900480601f0160208091040260200160405190810160405280929190818152602001828054600181600116156101000203166002900480156124d95780601f106124ae576101008083540402835291602001916124d9565b820191906000526020600020905b8154815290600101906020018083116124bc57829003601f168201915b5050505050908060010154905082565b600a5481565b6007602052806000526040600020600091509050806000015490806001018054600181600116156101000203166002900480601f0160208091040260200160405190810160405280929190818152602001828054600181600116156101000203166002900480156125a15780601f10612576576101008083540402835291602001916125a1565b820191906000526020600020905b81548152906001019060200180831161258457829003601f168201915b505050505090806002018054600181600116156101000203166002900480601f01602080910402602001604051908101604052809291908181526020018280546001816001161561010002031660029004801561263f5780601f106126145761010080835404028352916020019161263f565b820191906000526020600020905b81548152906001019060200180831161262257829003601f168201915b505050505090806003018054600181600116156101000203166002900480601f0160208091040260200160405190810160405280929190818152602001828054600181600116156101000203166002900480156126dd5780601f106126b2576101008083540402835291602001916126dd565b820191906000526020600020905b8154815290600101906020018083116126c057829003601f168201915b5050505050908060040154908060050154908060060154908060070160009054906101000a900460ff1690806008018054600181600116156101000203166002900480601f0160208091040260200160405190810160405280929190818152602001828054600181600116156101000203166002900480156127a05780601f10612775576101008083540402835291602001916127a0565b820191906000526020600020905b81548152906001019060200180831161278357829003601f168201915b5050505050905089565b6040518060a00160405280600081526020016060815260200160608152602001600073ffffffffffffffffffffffffffffffffffffffff168152602001600081525090565b828054600181600116156101000203166002900490600052602060002090601f016020900481019282601f1061283057805160ff191683800117855561285e565b8280016001018555821561285e579182015b8281111561285d578251825591602001919060010190612842565b5b50905061286b91906128bd565b5090565b60405180610120016040528060008152602001606081526020016060815260200160608152602001600081526020016000815260200160008152602001600015158152602001606081525090565b6128df91905b808211156128db5760008160009055506001016128c3565b5090565b9056fea265627a7a723158208b934ca99327b9cc9472bea4fa89e31541156a7dba5a79a6b7541c37c90a8c5e64736f6c634300050c0032",
  "source": "pragma solidity ^0.5.0;\n\ncontract SmartCommons {\n    string public name;\n     \n    struct Member {\n        uint id;\n        string name;\n        string memberType;\n        address memberAddress;\n        uint budget;\n    }\n\n    uint[] public membersList;\n    uint public ownerCount = 0;\n    uint public buyerCount = 0;\n    mapping(uint => Member) public buyersOfProperty;\n    mapping(uint => Member) public owners;\n\n    function addMember(string memory _name, string memory _type, uint _budget) public {\n        require(bytes(_name).length > 0);\n        require(bytes(_type).length > 0);\n        require(_budget > 0);\n\n        address newMemberAddress;\n\n        if (keccak256(abi.encodePacked(_type)) == keccak256(abi.encodePacked('buyer'))) {\n            buyerCount++;\n            Member memory buyer = Member(buyerCount, _name, _type, newMemberAddress, _budget);\n            buyersOfProperty[buyerCount] = buyer;\n\n        } else if (keccak256(abi.encodePacked(_type)) == keccak256(abi.encodePacked('owner'))) {\n            ownerCount++;\n            Member memory owner = Member(ownerCount, _name, _type, newMemberAddress, _budget);\n            owners[ownerCount] = owner;\n        }     \n    }\n\n\n    function getBuyer(uint _buyerId) view public returns (string memory) {\n        return (buyersOfProperty[_buyerId].name);\n    }\n\n    function getOwner(uint _ownerId) view public returns (string memory) {\n        return (owners[_ownerId].name);\n    }\n\n    struct Property {\n        uint id;\n        string name;\n        string location;\n        string owner;\n        uint registered_valuation;\n        uint sell_value;\n        uint uplift_percentage;\n        bool purchased;\n        string registered_date;\n    }\n\n    uint public propertyCount = 0;\n    mapping(uint => Property) public properties;\n\n    event PropertyCreated (\n        uint id,\n        string name,\n        string location,\n        string owner,\n        uint registered_valuation,\n        uint sell_value,\n        uint uplift_percentage,\n        string registered_date\n    );\n\n    function addProperty(string memory _name, string memory _location, uint _ownerId, uint _registered_valuation, uint _sell_value, uint _uplift_percentage, string memory _registered_date) public {\n        require(bytes(_name).length > 0);\n        require(bytes(_location).length > 0);\n        require(_registered_valuation > 0);\n        require(_uplift_percentage > 0);\n        \n        string memory owner = getOwner(_ownerId);\n        propertyCount++;\n        properties[propertyCount] = Property(propertyCount, _name, _location, owner, _registered_valuation, _sell_value, _uplift_percentage, false, _registered_date);\n        emit PropertyCreated(propertyCount, _name, _location, owner, _registered_valuation, _sell_value, _uplift_percentage, _registered_date);\n    }\n\n    struct InvestmentFund {\n        string funder;\n        uint total_amount;\n    }\n    uint public nrofInvestments = 0;\n    mapping(uint => InvestmentFund) public funders;\n\n\n    struct PropertySale {\n        uint id;\n        uint propertyId;\n        string propertyName;\n        string fromOwner;\n        string toOwner;\n        string algoHash;\n        uint uplift_value;\n        uint uplift_cont_rate;\n    }\n\n    uint public propertySaleCount = 0;\n    mapping(uint => PropertySale) public propertySales;\n\n    event PropertySold(\n        uint id,\n        string propertyName,\n        uint uplift_value,\n        uint uplift_cont_rate\n    );\n\n    function createSaleTransaction(uint _propertyId, uint _buyerId, string memory _algoHash, uint _uplift_value, uint _calculated_uplift_cont) public {\n        require(_uplift_value > 0);\n        require(_calculated_uplift_cont > 0);\n        \n        string memory newOwner = getBuyer(_buyerId);\n        Property memory _property = properties[_propertyId];\n        string memory currentOwner = _property.owner;\n        _property.owner = newOwner;\n        _property.purchased = true;\n\n        propertySaleCount ++;\n        propertySales[propertySaleCount] = PropertySale(propertySaleCount, _propertyId, _property.name, currentOwner, _property.owner, _algoHash, _uplift_value, _calculated_uplift_cont);\n        nrofInvestments ++;\n        funders[nrofInvestments] = InvestmentFund(currentOwner, _calculated_uplift_cont);\n        emit PropertySold(propertySaleCount, _property.name, _uplift_value, _calculated_uplift_cont);\n    }\n\n    constructor() public {\n        name = \"Smart Commons\";\n    }\n}",
  "sourcePath": "/Users/ozzibroccoli/dev/lucidminds/smart-commons/src/contracts/SmartCommons.sol",
  "compiler": {
    "name": "solc",
    "version": "0.5.12+commit.7709ece9.Emscripten.clang"
  },
  "schemaVersion": "3.0.19",
  "updatedAt": "2020-02-02T17:36:12.712Z",
  "networkType": "ethereum",
  "devdoc": {
    "methods": {}
  },
  "userdoc": {
    "methods": {}
  }
}